:020000040800F2
:1000000000400020B7D500080DCF0008850100088A
:1000100000000000000000000000000000000000E0
:100020000000000000000000000000000FCF0008EA
:10003000000000000000000011CF000813CF0008EE
:1000400015CF000817CF000819CF00081BCF0008F4
:100050001DCF00081FCF00084514000821CF00085D
:1000600023CF000825CF000827CF000829CF00089C
:100070002BCF00082DCF00082FCF000831CF00086C
:1000800033CF0008C1130008F51300080914000855
:100090001D1400087114000835CF000837CF000880
:1000A00039CF00083BCF00083DCF00083FCF000804
:1000B00041CF000843CF000845CF000847CF0008D4
:1000C0001148026801210A43026042680F4B134045
:1000D000436002680E4B134003608A040368934335
:1000E00003603F221204436893434360C26A0F23B4
:1000F0009A43C262026B074B13400363426B8A430D
:100100004263002181607047001002400CB8FF0874
:08011000FFFFF6FE2CFEFCFFD0
:10011800B0B5154C20680C2101401448082919D1A4
:1001280025680321CA0321681140914201D0024683
:1001380000E00F4A01231B04994200D01046A16A2F
:100148000F220A40511C0CF043FE0146A802000F82
:10015800801C48430749086022681206120F064BA4
:100168009A5CD0400860B0BD0410024000127A00CA
:0C017800006CDC02080E0020D4EE000831
:100184000A490A68002AFED404207146084202D1B2
:10019400EFF3088001E0EFF309800123DB071A4342
:1001A4000A60816902318161704700002CED00E032
:1001B400034C206804348047FBE70CF048FFFEE75B
:0401C4002CF800080B
:1001C800B0B50446054D0120287081200DF0F3F9E3
:1001D80020460DF0F0F900202870B0BD9B0D0020DE
:1001E80080B52E200249085CFFF7EAFF80BDC046B3
:0401F800960B002042
:1001FC0080B501208202024800210DF05AFC80BD1E
:04020C00AE0300201D
:10021000B0B511480124047000F0D0FE204600F073
:1002200031FE00F0C5FE022000F02CFE00F0AAFE18
:1002300000F098FE00F09EFE00F0ACFE0024074D9A
:100240000C2C04D0285D0DF0BAF9641CF8E7FFF718
:10025000CBFFFFF7D3FFB0BD9B0D0020E4EE0008FD
:10026000F0B582B0152A02D8062050434DE0F8249C
:100270002140090109180126DC07374608D19C07EF
:1002800001D4002704E03D4C247840252540AF09E7
:10029000384C6418811D01915D070AD40097052729
:1002A0007A433549551800994A4219070CD400265B
:1002B0000EE02E2A01D00C30019010462C38C0B22E
:1002C0000E2825D82B3A36E02270401D0190641C80
:1002D000284BA03D380611D0F8B2001F41424141E1
:1002E0000E4208D1012080021818844202D22878D8
:1002F00050402070641C6D1C7F1EEBE701208002C3
:100300001818844200D222700198C0B202B0F0BD29
:1003100010464138C0B2192801D8313A0BE01046D6
:100320006138C0B2192801D8363A04E05F2A01D0FA
:10033000002200E02A22D0B2142242431048801842
:100340007A420B230F4D0B494D195EB2002EDBD4C0
:10035000022E02DB877A067801E000263746AC429F
:1003600005D257408021675456402670641C401CBB
:100370005B1EEAE7AE03002002DB0008AA0D0020A6
:08038000F0EE00087F0300000D
:1003880001229202094B9A1890420DD2084A13781A
:10039800012B01D00A4600E00022002B00D11946AB
:1003A80003780B43534003707047C046AE030020E8
:0403B8009E0D002076
:1003BC0080B507220A40064B9A5CF8230B401901C2
:1003CC000818044908181146FFF7D8FF80BDC0462D
:0803DC0054F40008AE030020F8
:1003E40070B5002A00D5891807230B40D4111519BC
:1003F4006540F8220C46144024012018144C24189B
:10040400002B17D0134EF05C114349194DB2002D47
:1004140001D4002101E07119097A081AC1B22046F9
:10042400FFF7B0FF803405E0FF212046FFF7AAFF65
:100434008034083D68B20828F6DA012807DBE8B200
:100444000449085C401EC1B22046FFF79BFF70BD03
:08045400AE03002054F400087F
:10045C00F0B581B01C46F8230B401B01002A00D5D7
:10046C008018C0B21818104E3518072001400F48DC
:10047C00405C0090D01117184740380612D001206C
:10048C008002301885420DD2E00701D1640806E0E5
:10049C0028460099FFF772FF6008802404436D1C06
:1004AC007F1EEAE701B0F0BDAE03002054F4000853
:1004BC00F0B591B0099104251E462E4001D00C21B7
:1004CC0000E00621834C0E912170D90601D502243F
:1004DC0000E001249906C9170D91002E01D00A21C4
:1004EC0000E0052108910D9921400D917F210B9180
:1004FC00D11754184C400C941699CC11029109192F
:10050C005F06019208D4002E074600D00925ED4362
:10051C000C9E704AEF1928E0002A074601D508986E
:10052C003F180C9E6B4A6C4DAE4201DD08983F188B
:10053C002025632E01DD08983F181D40092E01DD92
:10054C0008983F18002D10D00A2E089D00DB0025BE
:10055C000D98022801D02E4601E008982E180C9810
:10056C00642800DB2E46F7190C9E0B980340614063
:10057C000E98381810700D98022800D1103B1C46AC
:10058C000998801D49B20791012202210591002191
:10059C000491C0B20390D3B20798834273DC0A92E1
:1005AC000FA80A2231460E930CF0C3FF0F980C9043
:1005BC00109E0B97F8B2E5B231463031CFB20999A3
:1005CC003A462B46FFF746FE0E9B0D98C0B298425A
:1005DC000DD1069460070ED40B9F781EBF1EE90741
:1005EC000C9EC0B21DD10399FFF7E2FE27E00B9FD2
:1005FC000C9E0A9A2AE0701EC0B2032802D20598FB
:10060C00401C05900C9E0A2130460CF0BFFBC8B272
:10061C00042801D0022809D1342F0AD10B9F781C51
:10062C000CE007220999FFF7D7FE08E00B9F04970F
:10063C0005E00598401C05900B9F781E0490069CC5
:10064C000A9A0E9B002E01D000200D90002E03D094
:10065C0008983F1A521C9EE70D98C0B200210D91CC
:10066C00002805D00228F3D1022B08D3002007E084
:10067C00E00608D502980028EAD4103CE8E70120EF
:10068C0040000D90E4E70499080615D00B97274617
:10069C00CCB2059845B2099E30460C30C1B220460A
:1006AC002A460CF0A3FC30460D30C1B220463C4625
:1006BC000B9F2A460CF09AFC0198002807D5089845
:1006CC00381AC0B2E3B22D220999FFF7C3FD0020FE
:0C06DC0011B0F0BD9C0D0020E7030000F1
:1006E800002B03D00A4B1B785B0610D41218F82392
:1006F800194009010918074B5918D2B2C3B29342DD
:1007080005D20B78DB430B70401C491CF6E7704799
:08071800AA0D0020AE03002031
:1007200070B5044C2578012626700CF06FFC2570FE
:0807300070BDC0469E0D0020C3
:10073800F0B581B01C480078002809D01B49097819
:10074800490605D52A3842B2002001460CF050FC73
:10075800174901200870B026164FF4B2E008172890
:100768001CD20420144DA8471020A8472046A847AB
:100778008025280610D03C7800F008FC204600F0C0
:1007880021FC00F0E5FB00BF00BF00BF00BF7F1CDD
:1007980000F0E4FB6D1EECE7761CDEE70020044960
:1007A800087001B0F0BDC0469D0D0020AA0D0020C4
:0C07B8009B0D0020AE030020BFD5000800
:1007C400F0B581B0009094785C431319DB1CC80821
:1007D40014785278D21DD2B2D2080025954210D096
:1007E4002E18F6010099761807498F190026A6429B
:1007F40005D219783970761C7F1C5B1CF7E76D1CD9
:0C080400ECE701B0F0BDC046AE030020E0
:10081000B0B51C460D46202323430CF01AFF60B2EE
:10082000002806D403480078762229462346FFF79D
:0808300017FDB0BD9C0D002076
:1008380010B52F23074CE35C074C24789C4201D366
:10084800002300E001235B0013432246FFF7DCFF8F
:0C08580010BDC046960B0020BC0D002017
:10086400F0B59EB002490A68012002430A6001E023
:10087400002002400A68D207FCD0030403490A6836
:1008840012931A430A60420402E0C0460010024078
:100894000B681342FCD07B23DB034C689C4311237D
:1008A4001B04E3184B60CB6A0F240794A343CB6269
:1008B40004060B68179423430B6044060B68234219
:1008C400FCD008944B68F024A3434B60054BFF33E2
:1008D4004C681C404C604B680224189423438343A7
:1008E4004B6001E000F8FFFF4B680C273B40082BEE
:1008F400FAD1524B524C5C6000240C949C60052449
:100904000B941C604B6913434B614B691B9213405E
:100914001D9382044B6913434B614B69049213404A
:100924001D93C2044B6913434B614B6913921340EB
:100934001D9304054B6923434B614B691C9423406D
:100944001D9344054B6923434B614B691694234023
:100954001D9382054B6913434B614B6915921340F8
:100964001D93384A1368384E1E431660374D2B6862
:10097400402213432B608303354C26681E432660B4
:100984002368102614963343236004022B681A94B8
:1009940023432B6084022B68039423432B602D4C48
:1009A40023680A921343236042028B6913438B61C9
:1009B4008B69099213401D930923DB061C680325E8
:1009C4002C431C601C68302626431E601C683C4374
:1009D4001C601C68C02626431E601F4A121D1C682A
:1009E400019214431C60AC031E6826431E60174A20
:1009F40014682C431460194A14682C431460184F6B
:100A0400184C3C627C68184E26407E60AA07BC687D
:100A140006929443BC607C68144E26407E607C68D9
:100A2400042294437C60FC68119214430F95AC43F8
:100A3400FC603C68E4071ED01AE0C04610E000E009
:100A44007FBB00000010004855550000000400481A
:100A5400000C004800140048FC2F00000008004867
:100A640008240140CF050000C73FFFFF3CC2FEFF42
:100A74003C6884433C60C2073C680E9214433C606B
:100A84003C68002CFCD43C6804433C603C46083C75
:100A94002468E407FAD01C68129A14431C601523D6
:100AA4001B03E44A14681C431460CB69149A13436F
:100AB400CB61CB6913401D9380220092D243DE4B5D
:100AC4001C6814401C609C6814409C600C9C9C62D4
:100AD400DA4CDC62DC680443DC60D94F3C68D94EF4
:100AE4003440C6031096A4193C603E46D64C1B9D68
:100AF400256027461C6804431C60CB6920242343DB
:100B0400CB61CB6923401D93D04B1C6814401C60FF
:100B14009C681440154605929C60072202929A62D2
:100B2400CB4CDC62DC680443DC603468C94A1440A2
:100B3400C2050D92A41834603A4607460498106022
:100B44001C683C431C60CB691A9C2343CB61CB6972
:100B540023401D93C04B1C682C401C609C682C4097
:100B64009C600C9C9C62B24CDC62DC683D4619972C
:100B74003C43DC60179C641E3746366826400E9C56
:100B840026433E60139E16601C682C431C60A74AD3
:100B9400136833431360536A5362D3680343D360C7
:100BA4001368169F3B431360536A53628B69129810
:100BB40003438B618B6903401D93A84B079ADA6149
:100BC400019ADA609C6B109A14439C63DC683126AA
:100BD4002643DE605C690F9804435C61119AD44338
:100BE400A61C5E601E68189D2E431E605C601A6021
:100BF400934D6B68009A13437F24A3436B601C9C42
:100C0400914B1C602246064600050C90864DAB684D
:100C14000343AB606B68039C23436B60EB68134333
:100C2400EB602B683B432B606B6A1A9803436B623F
:100C3400B305AC681C43AC601998C3026C681C43D0
:100C44006C60EB68159E3343EB602B680D9C23436B
:100C54002B60020307466B6A13436B62CB69334311
:100C6400CB61CB6933401D937D4EF4687D4B1C40B2
:100C7400F460346813988443346034681B98844364
:100C840034603468BC4334601F2424023768A743AB
:100C94003760754C3461B4681C40B460B468604F0C
:100CA4003C40B46034680C988443346074681C40DD
:100CB40074607368089C234373607B1CF4681C4055
:100CC400F4608B69129213438B618B6913401D93FB
:100CD4000F9DAB06534EB4681C43B46073687360D5
:100CE400F368F360199AD30634681C433460736A5A
:100CF4001C98034373622B07B4681C43B460736885
:100D04007360F368F3605307154634681C4334601A
:100D1400736A179A13437362B368069C2343B360E0
:100D240073687360F368F36033680E980343336049
:100D34002B07746A1C4374621A9F3C1D4B4B1D683D
:100D440025431D601C681C601C681C601C68099D90
:100D54002C431C601C68149D2C431C601C681C6084
:100D64001C681C60029804025D6825435D605C6831
:100D74005C605C68129804435C605C680825AC4362
:100D84005C601C680A9D2C431C6033681343336009
:100D94000B9B1B0434681C43346033681C98034366
:100DA400336033681598034333608B6919980343A0
:100DB4008B618B6903401D932D4B1C683C431C6065
:100DC4002C4B1C68119A14431C601D4E33460C3B7B
:100DD4001C68204A14400D9AA4181C601A4C256003
:100DE4008B691B9A13438B61896911401D912249B8
:100DF4000A68059B1A400A608A681A408A60189A31
:100E04008A621E4ACA62CA680243CA6070680D498F
:100E14000840109940187060169820601EB0F0BD0C
:100E240000F8FFFF001000480004004800140048C8
:100E3400FC2F00000008004800100040B70B000021
:100E440010E400E0FF00FFFF00E100E000140040B8
:100E54005FEA0000FFFF00FF002000400C4001405B
:100E640000580040FF7FFFFF5A1B40000030014044
:100E7400080001400C040140004401403FF100001F
:100E840081B008490A680092401C06D30020C04380
:100E940003E00A68D203D21710180028F9D101B070
:080EA4007047C04610E000E0B9
:100EAC0070B588B0684620210BF0C6FF00201E49A3
:100EBC00082815D272B68A68042313438B6000226B
:100ECC00082A0AD00B685B07FCD50B6C94006D46A6
:100EDC002E59F3182B51521CF2E762B6401CE7E76F
:100EEC0000984003410C1148018002994903490CB8
:100EFC00418001994903490C818003994903490CAC
:100F0C00C18004994903490C018105994903490C95
:100F1C00418106994903490C818107994903490C80
:100F2C00C18108B070BDC046002401403E030020C2
:0C0F3C00014808210160704718140048AB
:100F48000120C004014908607047C04618140048D1
:0C0F58000148802101607047180C00481F
:100F64000120C005014908607047C046180C0048BC
:100F740001208004014908607047C046180C0048ED
:100F840001204005014908607047C0461804004824
:0C0F940001480821016070471804004863
:100FA0000120C004014908607047C0461804004889
:0C0FB0000148102101607047180400483F
:100FBC0001200005014908607047C046180400482C
:100FCC00FF210904401801490860704718100048B7
:100FDC0001200106144A116000BF00BF00BF00BF12
:100FEC0000BF12490968124B13604A0401D57E22D6
:100FFC0000E07C220B0401D47A231A404003084001
:10100C000C4B1B685B0705D4002801D15E20024005
:10101C003E2004E0002801D16E20024076201040D2
:10102C00C90400D51046704718080048100C004839
:08103C00C003C00110140048BC
:10104400B0B50120C105174B196000BF00BF00BF38
:1010540000BF00BF14490A68144C1C6085051D605C
:1010640000BF00BF00BF00BF00BF09681C60930A37
:101074000C241C40D30980251D402B19520A4024FE
:1010840014401A190B0B1840101802221A40801829
:10109400890A10220A40801820220A408018C0B20F
:1010A400B0BDC04618080048100C0048C003C00179
:1010B40006480068C00601D5412000E040200449EC
:1010C4000968490004220A401018704710000048BB
:0410D40010040048BC
:1010D800024800688006C00F7047C04610000048EC
:1010E80001200002014908607047C0461800004806
:1010F80001200006014908607047C04618000048F2
:10110800074A0B0407D013689B07FCD503781371B3
:10111800491E401CF5E710680006FCD47047C0461D
:04112800083001404A
:10112C000C4A13685B059B0F0DD05368F9E71368E5
:10113C009B07FCD5002313711368DB07FCD05368A5
:10114C000370491E401C0B04F1D110680006FCD43E
:08115C007047C0460830014055
:1011640001200003014908607047C0461810004878
:1011740001200007014908607047C0461810004864
:1011840001208002014908607047C04618100048D9
:1011940001208006014908607047C04618100048C5
:1011A4000120C002014908607047C0461810004879
:1011B4000120C006014908607047C0461810004865
:1011C4008107C90FC007800F4018000203210906D8
:0C11D400401801490860704718100048DE
:1011E00004484169042211434161016811430160CF
:0811F0007047C04600040140F5
:1011F800F0B582B002463D4D002028603C4B1E6889
:10120800012426431E60002A0AD0012A5FD1E20386
:10121800384E9F6917420DD0761CFAD3204656E007
:101228000120C603354A9F69374221D0521E571CF8
:10123800F9D34CE04A00E9880E0416432E4A32439B
:101248005A60012252035E6816435E6009040BD09F
:1012580099694907FCD5A9684A1CAA605A6A0A70A4
:10126800E988491EE980F1E799698906FCD52EE0ED
:101278004800E9880E0406430120470637435F60AB
:1012880046035F6837435F609E69B60703D4521E02
:10129800561CF9D31BE09E69F60617D40026009663
:1012A800F74301970E0417D0AE68771CAF60019F13
:1012B8003678491EE9809E627A439E69F60703D113
:1012C800521C012AF9D102E07A43EBE7022019689F
:1012D800A143196002B0F0BD511C9A69920602D46C
:1012E800491EFAD1F3E70098F1E7C04664010020EF
:1012F800005800407F44FFFF0104000280BB00004B
:0C1308000148006880B27047344001408A
:101314000120810201480068084070471014004809
:0C132400014908607047C0463840014095
:0C1330000148006880B27047384001405E
:10133C0002480168042008407047C0461040014034
:10134C000420C043014908607047C046104001406A
:10135C000248016801220A430260704700400140C4
:10136C000248016810220A43026070472040014085
:10137C0002480168102291430160704720400140EF
:10138C000248016801220A43026070470044014090
:10139C0002480168012291430160704700440140FA
:1013AC0003490A6848688968504048407047C046FD
:0413BC00ACF7FF1F6C
:1013C0000120C0430749086007480188491C018083
:1013D00006480188064A914202D00188491C0180D2
:1013E0007047C046101000409C0300209E03002060
:0413F000FFFF0000FB
:1013F40080B50120C0430249086002F0E1F880BDD5
:041404001014004080
:1014080080B50120C0430249086002F0B1F880BDF0
:041418001020004060
:10141C00B0B50420C443074D2868400702D52C60A2
:10142C000BF092F92868800703D5A01C286002F005
:08143C00EBF8B0BD10400140C7
:1014440080B50848416949070BD504214161026808
:101454008A4302600448017810220A43027000F0B3
:0C1464001DFA80BD000401409F0D002017
:1014700080B50120C0430549086005480178EF2286
:101480000A40027000F00CFA80BDC04610440140D2
:041490009F0D00208C
:1014940010B5084C2078002805D0FFF779FEFFF737
:1014A4007FFE002004E0FFF783FEFFF769FE0120C2
:0814B400207010BDA60D002000
:1014BC00B0B58CB00C460546A0200CF03AF9E020F3
:1014CC000CF037F9FFF750FE01A805210170401C04
:1014DC000D492A46002A05D00B780370491C401C84
:1014EC00521EF7E7691C01A8FFF708FEFFF734FE50
:1014FC000220FFF761FE0F2021460BF0ABFDD02040
:0C150C000CF017F90CB0B0BD070D00206A
:1015180010B582B00446F0200CF00DF9FFF726FE56
:1015280001A8452101700121FFF7EAFD0348214682
:10153800FFF7F8FDFFF712FE02B010BD070D0020FF
:10154800B0B50A480078010701D5002403E0000679
:10155800C0171F240440064D2878A04204D0282034
:1015680021460BF079FD2C70B0BDC046A00D0020BF
:04157800070E00203A
:10157C0070B5124812490A5C0818407800028018AD
:10158C0010490A88824217D008804000841C26B279
:10159C00002E01D44B2100E04A2111200A4DA8470E
:1015AC00002E02D5A0B209494418A0B2010A12209B
:1015BC00A847E1B21320A84770BDC046F102000055
:1015CC00AE070020100E002061D00008FFFF0000C5
:1015DC00B0B50CF0D2F80120FFF74EFC25480CF00A
:1015EC00E0F80024244D322C07D0295DFF2902D0CD
:1015FC00E0B20BF02FFD641CF5E710200CF0A7F8FF
:10160C009E28FAD1B0200CF094F8022001210BF0A6
:10161C0021FD02200CF09BF80028FAD12420132184
:10162C00164CA04726203B21A0470F200021A047A5
:10163C0002200146A04702200CF089F80028FAD1BC
:10164C000F20A0210BF006FD022001460BF002FD3D
:10165C0002200CF07CF80028FAD125200A210BF08E
:10166C00F9FC0220FFF7A8FDFFF768FFA0200CF0A3
:10167C0060F8B0BD2AC5755452E5000861D0000869
:10168C0080B509494118082801D3F52000E0BD2098
:10169C0080000818007840B2000232210BF058FB91
:1016AC000249401880B280BDAE070020DC05000066
:1016BC00F0B526480178AA2946D1417AFD2943D0B4
:1016CC000021234A234B1C293ED045186E7A0C4628
:1016DC000934032E0FD8C0467E4436797600B744C1
:1016EC00010F182102263443045D2D7B2D022C1989
:1016FC009480042523E0FE2E1DD0FF2E22D123E062
:10170C0002263443045D2D7B2D022C1914811025E7
:10171C0015E002263443045D2D7B2D022C195481D7
:10172C0020250CE002263443045D2D7B2D022C1960
:10173C00D480082503E002252C43045D54801C78DA
:10174C002C431C70091DBEE7F0BDC046070D0020E0
:08175C005C030020A20D002037
:10176400F0B581B00446474E701C474904252A460B
:101774000BF05AFBF920800044490918701D2A46D1
:101784000BF052FB022C27D0012C43D0002C3F4AF3
:1017940073D15820307034460A3400253D4F0E2D45
:1017A4006BD0BF208000105C000709D43888C10BBF
:1017B400401800B240103849401881B2090A04E0C8
:1017C400E8B2FFF761FF314A010A2170611E087017
:1017D400A41CBF1C6D1CE2E7562030700024254673
:1017E4002A4A1C2C49D0BF208000105C400708D036
:1017F4003719E8B2FFF748FF244A78726900000AF3
:1018040003E03119FF204872214689198872A41C0B
:101814006D1CE6E7FF20B072FD217172AA213170C0
:101824001B491A4F7B5C7A1854782402E3181C462F
:10183400323C05466035AC4204D332237B5400214C
:10184400517001E0190ADBB23173F3720022B273F2
:10185400397B4B07DB0F7373162A03D0B318D87385
:10186400521CF9E705203075DC22F274B074880646
:1018740001D4DE2000E0DD207075252000213154E4
:1018840001B0F0BD070D002070010020AE0700205C
:0C189400E2030000E6020020DC0500007A
:1018A000F0B581B0FFF76AFEA948017849B2002976
:1018B00005D5A84A1378F0241C40231D1370A54EAB
:1018C0003278142A33D852007A44928852009744CE
:1018D000930093009300800064003C013C013C01B4
:1018E0003C013C013C013C013C013C013C013C0110
:1018F0001400140014003C01FA00FFF725FE032039
:101900000BF019FFC0200BF01AFFFFF769FC3078CD
:10191000401C307030780F210140032903D3307808
:10192000F021014031703078202101430CE1104654
:101930002038032860D310463038032818D22520D9
:10194000FFF7EAFD84480178BC2900D0FDE0417A28
:10195000012900D0F9E00321C943884A002930D089
:1019600053184418647A7D25ED005C55491CF5E751
:10197000242A12D0342A00D0E7E02520FFF7CCFD3E
:101980007548427A0178AA2900D0C2E0FC2A00D02A
:10199000BFE0724901220A70C7E0764D2878411CE9
:1019A000297075490C5C6D480078FFF7DBFE3078D4
:1019B000DF21014031702878102873D3002028706F
:1019C00072E03078F0210140C81C30706C48002172
:1019D00010E06B4A13785B1C1370DAB2042A0BD345
:1019E0003278F02313401A1D3270624A01231370BB
:1019F000802211430170A4E03678574F781C584973
:101A000004252A460BF012FA7C1DFF2120462A46A7
:101A10000CF055F80020B8725749102804D03A1835
:101A20000B5CD372401CF8E738461B30FF210A22BA
:101A30000CF045F82520002139540F200640751E72
:101A4000032D1CD2BC203870032E0DD1F92080004C
:101A50004A490918042220460BF0E8F938460B30B1
:101A6000FF2110220CF02BF8802038770120F87627
:101A7000E8B20228374A00D302257D7206E0002E24
:101A8000344A03D101207872BB2038701078DF21EE
:101A9000014011703B480078C00701D00D2401E0DF
:101AA0007320C443FFF7F6FCE1B22520FFF706FDE3
:101AB000FFF796FB33480178491C01702A480188DA
:101AC000491C018041E0FFF73FFD01200BF033FE90
:101AD000C0200BF034FE30782024204330702248A0
:101AE000008822490BF08CF94842484140001B49CC
:101AF0000870FFF775FB1B480188632902D8491C51
:101B0000018002E01A4800210170307820433070D3
:101B10001BE0AA2905D1FD2A03D1104902220A702F
:101B200003E0AC2901D0AA290BD1401C0C490422A6
:101B30000BF01AFD002804D1FFF7C0FD0948002171
:101B400001803078DF210140317001B0F0BDC04626
:101B5000A00D00209F0D0020070D0020A70D0020E4
:101B6000700100209403002096030020210600004D
:101B7000A20D0020A50D0020590D0020AE07002069
:081B8000A40D0020A30D0020BC
:101B8800F0B583B023480421017023481C2101705B
:101B9800FFF708FC214908600290000E009000261B
:101BA800234F34460194E5B20F2D29D86000A107D0
:101BB800C90F0818009940180322024029214A43F6
:101BC800501CC4B20298184A5043184A8018029010
:101BD800E8400BF011F90819019C00218E420BD046
:101BE8007B5C1A1A00D2C21AD2B2052A01D3491C48
:101BF800F4E7C9B28D42D6D17855761C641CD1E77A
:101C0800FFF7E8FC0648002101700648017003B0A0
:101C1800F0BDC0469F0D0020A10D002070010020DE
:101C2800A50D0020A30D00200D6619005FF36E3C82
:041C3800590D002022
:101C3C00F0B583B00446007925462E35002812D025
:101C4C00401E2071E078A1780818A0702878002830
:101C5C0031D06878411E697000282CD14E2017496C
:101C6C00085C687027E0FFF741FA6079002802D021
:101C7C00401E60711FE02078617888421BD02118CB
:101C8C008A7D02928A7B01928E7F8F7930228A5CC8
:101C9C0000236B702A7026228B5C5D1E8D54A770FE
:101CAC0066710199E17002992171002B03D1401CDE
:101CBC0007210140217003B0F0BDC046960B0020F7
:101CCC00F0B585B00E46054600786978081A0621ED
:101CDC00014006294DD028480078800749D443217B
:101CEC002648415C8906490F43D01C460A9B0027B5
:101CFC0099090329029700D1F9430F27002E03916C
:101D0C0003D04D21405C36180A361F402846114638
:101D1C00049300F035F8049BD906019003D429787C
:101D2C0068787F1C10E02A462E326C712871AE70D8
:101D3C00029850700398E870297869709B06DB0F45
:101D4C001370002F084614D0421C072313408B42FB
:101D5C000FD02818791E2622815404998906C90FA0
:101D6C00302281540199817586718477039981732E
:101D7C006B7005B0F0BDC046B30D0020960B002073
:101D8C0080B543200E4A105C8006400F801E04284C
:101D9C0014D8C046784400794000874402090F0BE0
:101DAC000D000322084611460BF010F8014605E021
:101DBC00490803E0490001E003204143C8B280BD5B
:041DCC00960B002052
:101DD000F0B587B0044640782378834200D085E18F
:101DE000222900D982E14320C44B185C8006400FB1
:101DF000890001A359588F46851E00088D1E0008D2
:101E0000971E00089F1E0008BF1E0008F11E000854
:101E1000231F00083F1F00086D1F0008A51F0008B2
:101E2000B11F0008FF1F0008092000081520000846
:101E3000192000081D200008292000082D20000876
:101E40004F20000859200008652000087120000874
:101E500081200008852000089520000899200008AE
:101E6000D12000089D200008DD200008F120000896
:101E7000A1200008A9200008B1200008BD2000080A
:101E8000C520000830200090462114E13020009049
:101E90004621142210E1A22000906421F7E02A20BC
:101EA000069000905F2505260223059320462946CB
:101EB0003246934FB847212000900A2365E0C220A4
:101EC000009050210A2503268D4F20462A4633468E
:101ED000B847422000903C2120462A463346B84766
:101EE000202000904621012320462A46B847FDE0E5
:101EF00021270097462105220123814D2046A8472E
:101F0000009732210F2206920226204633467C4D4E
:101F1000A847009750212046069A3346784CA047A0
:101F2000E4E0222000906E210525012620462A4665
:101F30003346FFF7CBFE232000907C2183E000276F
:101F40000097322105256E4E20462A462B46B04783
:101F500000975A2120462A462B46B047022000907F
:101F60006E21032204232046B047BFE023200690C1
:101F70000090502505260A2305932046294632461F
:101F80005F4FB8472120009014232046294632464F
:101F90005B4FB84706980090204629463246059B7D
:101FA000B847A3E0622000900A21142205239AE09A
:101FB00022200590009032210491042206920A23E7
:101FC00003934F4D2046A8472120029000904621C0
:101FD00001910827142620463A463346484DA84723
:101FE00005980090204604993A46039BA84702981A
:101FF000009020460199069A3346A84776E02A20A9
:102000000090782105220DE0222000907821052201
:10201000322368E0212002E0222000E0232000900B
:10202000002114220A235EE012202EE042200090BC
:102030003C211425032620462A463346FFF746FE58
:10204000E2200090502120462A4633464CE03020C2
:102050000090462128222FE0012847D01020009030
:102060004B2128E0012841D010200090412122E09E
:102070001020009006250123204611462A4633E011
:10208000302002E0012831D01020009046210A22A1
:10209000022328E0102004E033201AE0312018E069
:1020A00031200090782106E0322000907A2102E071
:1020B000332000907C210A22012314E0502000905C
:1020C000822102E0D020009032210A2200230AE07F
:1020D0003220009078210F22032304E03120009069
:1020E0004621142219232046FFF7F0FD07B0F0BD6A
:1020F0003020009046211E22DEE7C046960B0020CD
:04210000CD1C0008EA
:1021040080B5014602484622FFF760FE80BDC04606
:042114004C0C00204F
:1021180080B50346CAB202481946FFF755FE80BD8E
:042128004C0C00203B
:10212C0080B54F22054B9A5C920702D4FFF7E4FF6F
:10213C0002E008460BF0AFFB80BDC046960B0020BA
:10214C00B0B5064C064D2088592805D8287880074C
:10215C00F9D501F0E9FBF6E7B0BDC0469E030020BF
:04216C00010E002040
:10217000F0B581B0144605460C4802885A2AFCD3B3
:10218000684641700A4FB8600222FA80090A01705D
:10219000002050263146FFF72FF8BD60FC8001205B
:1021A0003146FFF729F801B0F0BDC0469E0300207C
:0421B00064010020A6
:1021B400F0B59BB0069005928A183F24402613463A
:1021C400234000D0F31A0C40900989090991CDB23B
:1021D400C1B2A94213D10E46FFF7B6FF0AAFB81C2D
:1021E400B60140223146FFF7C1FFE019801C069971
:1021F400059A0AF019FE7E70A808387074E001AFE1
:102204004EC7411B0027002C069E25D00891FFF7DE
:102214009BFF0AAEB01CA90107912246FFF7A6FF57
:102224000498021BA019801C06990AF0FDFD07986A
:102234007070A808307033488660069E4221C180C1
:10224400002550212846FEF7D5FF08992E48058021
:10225400491E0998401C01E03C460998321908922D
:10226400C0B207900AA8801C09904EB2254CFDB25A
:10227400AE421BDDFFF768FFA80108990918402248
:1022840009980AF0D1FD0798281881010AAA51700B
:1022940080081070A2604220E0800025502128466A
:1022A400FEF7A8FF184805807F1CE0E7039E002E78
:1022B40026D00498851BFFF747FF019F7D430AAC96
:1022C400A01B423029463246FFF750FF0598069975
:1022D4000818811B099832460AF0A6FDC02002990D
:1022E40001406170B808207006480AA98160422143
:1022F400C180002450212046FEF77CFF0248048060
:0C2304001BB0F0BD640100209E0300200F
:10231000B0B582B00C46022A03D32146FFF74AFF2C
:1023200012E00578FFF712FF084801A98160032237
:10233000C2808D704C70200A087000245021204605
:10234000FEF75AFF0248048002B0B0BD64010020CD
:042350009E030020C8
:10235400F0B545786B1C437006780F247707A643C5
:102364003F0F7F18BE190670817800291DD0002FF9
:1023740011D04C1E072C20D9102927D05F2932D028
:10238400612936D062293ED1D9B240293BD30021FC
:10239400417008210FE0632904D020210A431C491D
:1023A4000A70067800218170417026400F2E2AD1D0
:1023B400002141706121817025E0C0467C4424796C
:1023C4006400A7440A03200320202003DCB2302C3D
:1023D40003D30023437049088170481E1840000647
:1023E40011D140200CE0272D0ED01F2D0BD18020C1
:1023F40006E0084900234B805F2181704370602010
:10240400024303480270F0BD002141701021D2E75D
:08241400A80D00208E0300203A
:10241C0080B506488078632801D1002004E0FEF7DF
:10242C00D7FD41080120884380BDC046840C0020A4
:10243C00B0B52C2801D9002054E0411EC9B208299E
:10244C0004D80E30C0B200F053F84BE005461F3DE7
:10245C00ECB2022C0CD8FEF727FE0421814328068F
:10246C003DD07020204A105C0F220240501E10E01C
:10247C000546253DECB2022C14D80BF0B4F94142C0
:10248C00414128062BD07020174A105C0006000F23
:10249C00401E01228240154800781040022C0CD1BD
:1024AC0001461CE02C280DD02B2817D10E4870307B
:1024BC0080780F210140481E0AE00843C0B2414217
:1024CC0041410CE00848703080780006000F401E37
:1024DC000122824005480178114000E00021C8B279
:1024EC00411E8841B0BDC046960B0020A90D0020AE
:1024FC00B0B50546FEF7EAFD0446FEF7D5FD0E2DF8
:10250C0009D8032068431B49085C0F2101400F398F
:10251C00484248412DE00F3D082D29D87D442D79A6
:10252C006D00AF44040D111306161A1D1F00012176
:10253C0019E020071CD5FEF7B7FD0146402012E03C
:10254C000120044020460FE004210CE00820A043A9
:10255C000AE040218143084606E00BF044F903E011
:10256C00102100E020210840002801D0012000E0CB
:08257C000020B0BD840C00201A
:102584000F2101400F2907D00320484303490818AD
:1025940000214170622181707047C046840C002084
:1025A4000F2101400F2905D0032048430249081890
:0C25B400632181707047C046840C002039
:1025C000F0B581B045480188491C0180444801703C
:1025D000FEF704FD7824844342490A780025164614
:1025E000264002D00623134300E0EB43002E00D127
:1025F00032468343002A01D01E460CE0220701D553
:10260000082202E0C043102202406006800F00D082
:102610006022961D1E400A70334C062D0BD00220FE
:1026200030404108EAB22046FFF794FEE41C6D1CDE
:10263000F0B24608F1E72D4800780026002837461A
:1026400003D1FEF7FFFCFF274740274D1235284CEA
:10265000082E0BD0B01DA15D39404A1E9141C2B277
:102660002846FFF777FEED1C761CF1E72148047938
:102670002026344061091C482A300E22FFF76AFEEA
:10268000FEF7ACFC7E218143214302D01A48092188
:102690000170322019490F5CFEF71EFD0546FEF75A
:1026A0001BFD0446FEF79AFC40B2002801DA4420E4
:1026B00000E05420012139407A09022313405918BF
:1026C0006A000823134059183440091908182821B2
:1026D00041400B48017001B0F0BDC0469803002096
:1026E000AA0D0020AB0D0020840C0020B10D0020AD
:1026F0005CF400087F0D0020B70D0020720200205E
:04270000A90D0020FF
:10270400024801210170024801707047B10D002098
:04271400050E00208E
:102718000648427C017C914201D1054904E0815C74
:10272800521C0F231340437408B27047470D002012
:04273800FFFF00009F
:10273C004421044A515C8900034A5118085C401C2E
:0C274C00C0B27047960B002084F4000817
:0C275800014800887047C046980300202C
:1027640002490818401E00787047C0465CDD000826
:102774000A214143014840181A307047AE0700202F
:1027840046200549085C0549054A515C89094140D0
:10279400012008407047C046960B002071030000DA
:0427A400AE0700205C
:1027A80070B582B0DC0601D52D2500E02425EF2484
:1027B8001C40002A0CD0042A0DD8124D124E755D0B
:1027C800ED06521E002D0FD40094D3B2104A08E033
:1027D8000094104A0FE0954210D30094521FD3B2D0
:1027E800074A0AF0DBFB09E0102423430093920018
:1027F800064B9A185F3204230AF0BBFB02B070BD87
:10280800BAE5000871030000AE070020960B00200F
:0828180084E500087CEB0008D8
:10282000B0B5344801214170002101706F22324B54
:102830009A5C930703D402238370C41C06E024230C
:1028400003712323C37022238370441D530703D4D1
:10285000631C0325257006E02123A37020236370E9
:102860001F232370E31C06249C7005245C70042441
:102870001C70D40603D41C1D0725DD7006E0272438
:102880005C7126241C712524DC709C1D930603D4E6
:10289000631C0825257006E02A23A3702923637092
:1028A00028232370E31C09241C70540601D45B1CEC
:1028B00002E02B245C709B1C120602D52C221A709D
:1028C0005B1C0A22162A03D21A70521C5B1CF9E701
:1028D00016221A701A1A094C227017245C70D2B290
:1028E000521C074BCCB2A24203D3045D1955491CBC
:1028F000F8E7B0BDDE0C0020960B0020B40D0020E0
:04290000B10C0020F6
:10290400C11142184A4051B2034A515C002800D513
:0C291400494248B27047C046B10C002098
:10292000C11142184A4051B2034A515C002800D5F7
:0C293000494248B27047C046DE0C00204F
:10293C00F0B581B01D460C4606461046163009D03F
:10294C001746162A0AD0002F10D11748421CB01D6A
:10295C00C0B206E0B01DC0B2114A02E0B01DC0B258
:10296C00104A21462B460AF0E9FA16E006D5212238
:10297C00304621462B46FDF76DFC7F420095781EB4
:10298C0041B2162901DC074600E00A3FFBB2B01D3C
:10299C00C0B2064A21460AF0FFFA01B0F0BDC046AB
:1029AC007CF4000880F400087CEB0008F1DC0008E3
:1029BC00F0B583B01F460291064659B22348002950
:1029CC0002DA0346083300E0C31C1B78002901DA45
:1029DC00C01D00E0801C007844B2B8070ED4032C54
:1029EC00019315460CDC00920323184660431949E9
:1029FC000A18304602990AF0BAFA15E0154614E0A6
:102A0C000092E41CE3B2124A304602990AF0C4FA6E
:102A1C0064B2102C00DAB61F30461230C0B2252238
:102A2C0002992B46FDF716FC019B03200740022F51
:102A3C0003D0002F07D1012C05D1F0B25AB2029964
:102A4C002B460AF0F0FE03B0F0BDC046750D002019
:082A5C0060E6000881EB0008B0
:102A640080B5062803D840001849095A25E00021FA
:102A74000C2822D3132811D801460C394A001149D5
:102A8400895A0F2808D8104880183222825C3230C4
:102A9400407800028018091A49000EE0232805D85E
:102AA4004000074940182838018806E02D2804D83A
:102AB4002438C0B202F03CF9014608B280BDC046D9
:102AC400C60200202E030020960B00204E03002097
:102AD400F0B587B00446163040D0002C3FD0162CF9
:102AE40001D101213BE0E1116018484041B21729AE
:102AF40003DB012C11DB002410E0C1B2092915D835
:102B04000125002C2C4600DC00240E30C0B2FFF757
:102B1400F3FC01466140694021E00124C0B2FFF7A3
:102B24008BFC411E8841604007B0F0BD15460A3851
:102B3400C3B203205843644908184B21CA00815C7E
:102B44000F2739400AD0052D0CD30120002C024652
:102B540000DC00225F49C95C0140B1E00021084665
:102B640007B0F0BD059382180692584A835C03931C
:102B7400574B5918491E0978801842780192461C0F
:102B840000200229049012D0002902901AD103983F
:102B9400401EC0B2FFF764FF0290307840B2292192
:102BA40041438910820E80188011081A0AE00398A4
:102BB400401EC0B2FFF754FF02903078401EC0B2EE
:102BC400FFF74EFF069909780A463A40521E0D2A2D
:102BD4002ED8059E7A4412795200974421232C352D
:102BE4000606063E432123252548039840B2691C66
:102BF400CAB2029200263146FFF76AFF0390019899
:102C040040B204963146029AFFF762FF06990978AA
:102C14000F40062F32D0052F33D1039A024232E0FF
:102C2400029A0DE0029A14E02A48805DC0071BE076
:102C3400059E049A39E0029BDA139B1853401AB29A
:102C44008242049A22DC30E0029BDA139B18534040
:102C54001AB28242049A19DB27E0029A8242049A49
:102C640014D022E0029A8242049A0FD11DE070002F
:102C7400194A105E0028049A08D516E0039A024304
:102C840001E0039A8242049A059E0ED008090BD0F3
:102C9400082800D9401C691CCAB20021FFF718FF9C
:102CA40002460698017800E001220C2008400C2816
:102CB40001D0084882550120002C014600DC002187
:102CC400514041404BE7C046AE0700205602000089
:0C2CD4005CDD0008690D002006030020F4
:102CE00080B531200B4908560AF0BDFD002806D1F9
:102CF00009480088002802D1FEF726F901E0FEF716
:102D00001DF90648007806490A78824200D008700A
:102D100080BDC046960B00209A030020AA0D00201B
:042D2000B50D0020CD
:102D2400032803D0002806D1032100E00021490034
:102D34000A4A515A04E04100084A515A03280AD861
:102D44005E22074B9A5CC240D00702D00120C00229
:102D5400411A88B2704708467047C0463E030020B7
:042D6400960B0020AA
:102D6800B0B50C460546FDF745FA182029460AF085
:102D780032FC600703D512201721FFF7D3F9E007CB
:102D880007D1A00707D41C2038210B4A0AF02BF9D9
:102D980005E0064A04E0302005490AF01CFC054A13
:102DA8001620002104230AF0CBF8B0BD94F40008E3
:0C2DB80096E500086BDD0008ACE50008A3
:102DC400B0B50C4617490978002902D016490860A5
:102DD40026E00421FFF7C6FFFDF7ACFC002C03D16D
:102DE4002E201249085C00E01920C0B2FDF7EAF970
:102DF40000F020F80E4D0AF0DBF900280ED12878F7
:102E0400032801D100202870002C02D0FEF794F88A
:102E140001E0FEF797F8FFF761FFECE700F00AF82E
:102E2400B0BDC046AC0D002074010020960B0020FC
:042E3400020E00206A
:102E380080B50AF0BBF90028FBD1024800210170D7
:082E480080BDC046A80D00206A
:102E5000B0B544200F49085C0124204002210D1A1E
:102E60002846FFF75FFF00B2294608F0F7FB0A4942
:102E70000A4A515C890603D40949884206DA06E009
:102E8000C1134018484000B2102800DB002420463F
:102E9000B0BDC046960B002071030000AE070020B5
:042EA00011FCFFFF23
:102EA40080B543201049085CC0071BD1FDF7FCFF27
:102EB400FFF7CCFF002815D10C480621FFF752FF7D
:102EC400FDF738FCFFF7B6FFFDF7EEFFFFF706FF4F
:102ED400FFF7BCFF002805D10AF06AF90028F3D0F7
:102EE400FFF7A8FF80BDC046960B00208EEB0008BC
:102EF40080B582B00B46002100911021024A0AF0ED
:0C2F04004FF802B080BDC046F1DC0008B0
:102F1000B0B500252C46E8B2082808D21620401B80
:102F2000C0B2FFF7EBFA61000C186D1CF3E76F20DD
:102F30000849085C40070BD53C2084431F200AF059
:102F40005EFC8500254304200AF059FC04012C4353
:082F5000E0B2B0BD960B0020B9
:102F5800F0B585B04320534A105C800700D59EE049
:102F680051495248415C01915149445C6F23039394
:102F7800D25C52070DD438222240083A182A04D8C5
:102F8800012393404B4A134203D1C722144008340B
:102F9800445404940024029402272743FFF7B4FF03
:102FA800064625200AF027FC0546F9B24248FFF7F5
:102FB800D7FE344604984440E00703D0022000219D
:102FC800FFF794FFA007374F03D517200121FFF71C
:102FD8008DFF0398385C400711D4600703D52C2077
:102FE8000221FFF783FFA006400F20D0300717D437
:102FF800F00618D4B0061AD54120052115E020079F
:10300800800F05D03007810F15312C20FFF76EFF98
:10301800A006800F0BD0B006800FC11C412004E031
:103028004120032101E041200421FFF75FFF0398BD
:10303800385CC00608D46006019D11D556200621CB
:10304800FFF754FF019D0BE028460199484080078F
:1030580006D00320294601401B315620FFF746FFC2
:10306800200603D56B200721FFF740FFFDF760FB23
:103078000298C00701D0002402E0FFF7D9FE04241B
:103088000498864202D10198854208D00AF08EF849
:10309800002804D1FFF720FE012002907CE705B04C
:1030A800F0BDC046960B0020C1030000AE0700200B
:0C30B800AF02000001010001AFEB0008B6
:1030C400F0B581B00B480C490D1800242646F7B220
:1030D400032F0BD82878002804D040B20AF0C1FB93
:1030E400002802D10A357E1CF1E7741CE0B201B05D
:0C30F400F0BDC046CD020000AE07002079
:1031000000280FD00A2242430A48101849004018EC
:103110000949425C4018407800028018FF21F631CE
:10312000401804E003484018F1214900405600B21D
:0C3130007047C046AE070020BB02000044
:10313C00B0B515460C46002803D021460AF03BF8E2
:10314C0000E000207C21C9438D4200DC0D467D2D22
:10315C0000DB7D2500280DD00B4969180A2242435B
:10316C000A48101862008018094A81548018090A0C
:10317C00417004E005480019F1214900455406202E
:10318C0009F040F9B0BDC0460BFEFFFFAE070020B2
:04319C00BB02000072
:1031A000F0B583B0009315460F4602905748067855
:1031B00020203043642801960DD1FDF70FFF2E46E5
:1031C0003D46800701D5012001E052480078C4B295
:1031D0000527132022E04E49097800290DD0422E00
:1031E0000ED0432EE9D0452E0AD0622E08D0652E8F
:1031F00006D0632E0298E0D025E06528029822D1FF
:10320000FDF7ECFE2E463D46800702D50020C44364
:1032100002E040480078444204271420FEF772FF81
:103220003846FFF76BF9002808D00520FFF7BAF9F8
:103230000420FFF7B7F90298404201E002982018F5
:103240002F463546019E002F1BD1012D19D1602E2E
:1032500001D02E2E11D12E48002404703046FFF7E5
:10326000A1F90299484248412E2E09D12A49002647
:103270000E702A494988441A16E00121084000E0EE
:10328000264626494988441A2348007801280BD14C
:10329000FDF7A4FE0821224A5156800701D50846B1
:1032A00001E014204843241820B2A84202DD13276D
:1032B0002C4603E0B84207DA3C4614273046FFF7B5
:1032C00071F93846FEF71EFF029880B2A1B2814222
:1032D00018D0FFF7A3F8002802D01248FF21017090
:1032E00020040AD13046FFF74DF90298002801D496
:1032F000142000E01320FEF705FF0321009808408A
:1033000009F086F820B203B0F0BDC046B00D002031
:10331000CC0D0020BA0D0020C80D0020680300204D
:083320007F0D0020BB0D002011
:1033280080B5024B1B7809F069FF80BDD30D0020E2
:1033380080B50A4602490B78002109F05FFF80BD7D
:04334800D30D002081
:10334C0080B50A4602490B780021FFF723FF80BDA8
:04335C00D30D00206D
:1033600010B508490A78002A01D1002808D0064B78
:10337000BE241C70002801D1501E00E000200870FF
:0C33800010BDC046B80D0020B90D0020A3
:10338C00044909788900044A50500448BF2101704F
:10339C007047C046B80D002050010020B90D002028
:1033AC0010B508490A78042A03D3094809F0F7FE36
:1033BC0007E0521C9300044CE0500448BF230370F8
:1033CC000A7010BDB80D002050010020B90D00206E
:0433DC00D4EB000826
:1033E00048200649095C7D208000484382B2044998
:1033F0000B889A4200D908807047C046960B00207F
:043400009A0300200B
:1034040010B57D21890000280BD04820114A105C9A
:10341400484384B2104B1A88944204D91880024657
:1034240001E00D48028890B2002800D0501E82B2FC
:103434005023084CE35C59438BB2934200D80146B5
:10344400064A1278002A00D0084603490880FFF78C
:1034540045FC10BD960B00209A030020BE0D0020F1
:1034640070B52721084A535C0F2B0CD82824155D0E
:103474006E009053681C1055C0B2102801D3002070
:0C3484001055581C505470BD72020020FE
:1034900080B503490870103880B2FFF7E3FF80BDA4
:0434A000AE0D00204D
:1034A40010B54421124A515CC90701D10321484097
:1034B40010490856410F411849B2C9100622D24397
:1034C400904200DA4942CAB2072A00D30721C9B29E
:1034D400094A022902D3094B09241C70515C0728AC
:1034E40001DC002000E00120C001084310BDC046FB
:1034F400960B0020940D00209CF40008B70D0020CA
:1035040080B5042807D81A490A78401EC1B210466B
:103514000AF0BDF90DE0092801D90C2815D840009E
:10352400124940180B21C943405E410F401800B2B4
:10353400C0107B21CA4301B2914203DB7C2902DD26
:103544007D2000E0832040B280BD1C2809D84000C3
:10355400054940181921C943405E0A2109F0FCFBC2
:10356400E7E70020EFE7C046C60200204E03002034
:04357400DE0D002048
:1035780080B5024800F004F880BDC0464C0C00201D
:1035880080B5017900290ED0807800280BD04F2112
:10359800084A515CC90709D007490A781018087009
:1035A80040B2002802D4FDF7A3FD01E0FDF798FD25
:0C35B80080BDC046960B0020C10D002015
:1035C40080B51048FEF738FBFEF7F8FF0E48017887
:1035D40002220A4302700D480178491E017009064F
:1035E40003D101214170642101708178491E8170E9
:1035F400090605D10A218170C17801220A43C270EB
:1036040080BDC0464C0C0020020E00201F0E00207E
:1036140070B5FDF777FE1B490A880880861AB0B298
:10362400032109F0D7FB1849711889B2174C184ABD
:10363400914201D2012122E025780021002D1ED0E3
:10364400082D1BD8134AB21892B2134B9A4216D8BB
:10365400124964220A701249401801B24A20114AE0
:10366400105C0A30C0B248430A2109F075FB6900B6
:103674000D4A8918891E0880691C00E029462170BA
:1036840070BDC046A00300201DD1FFFFBF0D002068
:103694009D8C00009DF6FFFF64100000AF0D00201C
:0C36A40024FAFFFF960B00202E030020EC
:1036B00086B08948FF2101700AF03BF887498848A5
:1036C000086008F005FF002802D0FCF7A1FD05E026
:1036D00008F0BCFCFCF79CFD08F03AFF824CFDF7BB
:1036E000B1FCC32102460A40832A02D10120207086
:1036F000F5E78143822908D10AF019F808207949B1
:1037000009F06DFFFDF718F8FEE72D26774FB85D3D
:10371000049008F075FD09F04DFD062101400629D1
:1037200004D1207802210143217026E00024E5B273
:10373000052D05D80221014002D1641C4008F6E79E
:10374000052D1AD828460AF08CF9002815D0BC554A
:10375000284608F055FD012008F05AFEFCF74EFD02
:1037600016200021624A042309F0EEFB182006F01F
:10377000C3FCFCF7E1FFFFF75FFB0596FFF750F88E
:103780005C4C012020700390FFF73CFE002002906B
:1037900020705C20385CC01DC0B2FFF779FE462067
:1037A000385CC00648D44F20504C205C002803D021
:1037B00007201C21FEF7BAFCFFF792FAFCF71EFD6A
:1037C0004D4A002001460346FCF7FCFF4C20205CDC
:1037D000C00608D410200090224651320020382123
:1037E0000A2309F0CAFB1020009001202021434A3F
:1037F0000A2309F0C2FBFCF79FFFFFF71DFBFDF753
:1038000055FB192004010AF034F807463C4D28887E
:10381000001986B2FCF790FFFFF762FAFDF746FB4E
:103820000AF027F8044609F0C5FCBC4204D1002880
:1038300002D128888642EDD143242C4F385D4007C1
:1038400006D400F03BFFC72802D82E4809F0ADFC93
:10385000FDF72CFB2C48C0890E2109F0BDFA2B493D
:103860000870FFF71FFBFFF777FB385DB8210842B0
:10387000059E02D1264809F098FC264C20780028A5
:10388000029D03D0244809F090FC2570FFF7D4FA7C
:103890002248807A09F0BBFC214805702148C17894
:1038A00002220A43C2702048294607F015FE08F09C
:1038B000BDFF1E4809494860B85D0499814204D0A3
:1038C000012008F0A5FD08F0BBFD1948039901701F
:1038D00000F030F8FCE7C046060E00205001002042
:1038E000B1A10008E1EB0008B30D0020960B002009
:1038F000A4F40008BE0D002072DD0008140E0020A4
:103900009803002075E100083E030020BC0D002054
:10391000ACF40008B20D002084E10008AE070020DE
:10392000DE0D00201F0E0020E6020020FD7A0008B8
:04393000AC0D0020BA
:10393400F0B589B0FD48002107910170FC48078863
:10394400FDF7B2FAFB480178FB4A12780270501A6C
:10395400FD4C2070FD4D2878002803D1FC4800213F
:1039640007F0B8FD2078002800D1AEE2F9480178CC
:10397400002901D0491E017009F079FFF6498A88AF
:103984009042079C2DD14520F44A105C0A3002066F
:103994002CD0F34A1278322A28D30A78521C0A709F
:1039A400D2B2102A22D300220A704A88521C4A80BA
:1039B400FF217831C0B2484380B291B2884215D217
:1039C4001F200240012A11D1E6480178FD220A4055
:1039D40002700620FFF75AFD10202D21FEF7A4FBEC
:1039E40004E04C808880E0480121017006F05CF915
:1039F40006F0F2FADD480178002901D0491E017071
:103A0400204608F0CDFDFCF7F7FBD9480678047092
:103A14002878002800D0F6E10597D648877C042F43
:103A240003D0032F02D1042700E00827F020304000
:103A34007C21C943089120283DD00F203040811FAC
:103A4400C8B2072837D8039106964421C34E715C47
:103A54008900C94A51184008085C5D21715CC90796
:103A640001D00321081AC5B2C4480078294609F0D8
:103A7400A6FB0490294609F00AFF002F08D1C113C0
:103A840042184A4011B2890F511889B289084F1C53
:103A9400022D15D14621715CB94AB64B9A5C920944
:103AA4004A40D2075B7C01261E4000D00227002A30
:103AB40007D07F4205E04020304340285AD074E0CC
:103AC40026460399CA077AB2294600D1524282187F
:103AD40093B25C1EA3411446444024B2089D7C3535
:103AE400AC4201DC002400E00124002810D0002EA8
:103AF4000ED123400CD1002704983A46FFF71CFB53
:103B04000698FEF74DFD1620FEF7FAFA3E4631E020
:103B140017B238467C3080B2F8280FD804983A4659
:103B2400FFF70AFB78B2C01139184140C8B28108C6
:103B34003C311520FEF7EEFA00261BE0002F01DCD5
:103B4400089A00E07D220498FFF7F6FA38467D30A3
:103B540080B20026FA280DD878B2002800D47F421B
:103B640078B2800F381840B280083C30C1B21520BA
:103B7400FEF7D0FA37460020C543824C2078411C1A
:103B8400C8B288422E4600D10646FEF745FC0028FE
:103B940000D10646F0B2C82800D035462570C828A2
:103BA40001D03E4601E04220C64306960C20764EE4
:103BB400335E7648018809B2C91ACA0E89184909C0
:103BC4000A049CB20021002A0A4606D0048004227A
:103BD400825ED21AD30FD2185210848046235F4DCE
:103BE400EB5C20241C406A4B1B78234300D00A461C
:103BF4004280684F78797978091ACAB2D20989184B
:103C0400FE220A401018787148B2401038720699A2
:103C14000843C0B2FFF7F4FB5F48007880005F49B7
:103C240009585C20285CC01D5D4A914231D15D4930
:103C340009780029089B2DD1397A00290CD000225B
:103C44003A720622BA5649B25118994200DC194612
:103C54007D2900DB7D21B9719F218900454A525C91
:103C6400510917D050B2002807D448008019C088E1
:103C740001218A028018C90206E048003D49401823
:103C8400494940567D30FA2182B20720504309F059
:103C9400A1F8089B45490978C0B2884202D0FFF7D1
:103CA400F5FB089B4C202856414E002825D530783A
:103CB400002822D03F48007800282E4A00D17FE017
:103CC4003D4C207840B2002801D4401C20700220D2
:103CD400FFF7E6FB7F250146294013D022788A426C
:103CE4002CD90021217006990906224A089B67D124
:103CF40040B2002825DA632061E02E4800210170DB
:103D04001C4A5DE00320FFF7CBFB054016D0217869
:103D1400A942184A089B53D9002121700699090623
:103D24004ED140B2002849DA642048E0C90D002091
:103D34009C030020C20D0020980300200D4A089B1C
:103D44003EE062203BE0C046BD0D0020B10D0020E6
:103D5400E6020020CE0D00208E030020960B0020EA
:103D6400BC0D0020B30D0020BE0D0020AF0D0020BF
:103D7400A80D0020AE07002084F40008DE0D00200A
:103D840071030000BB0D00204E03002068030020D7
:103D9400D00D00207F0D0020B80D00205001002020
:103DA400B1A10008900D0020B5020000AE0D002066
:103DB400B60D0020B70D0020C30D0020652006902D
:103DC40001203070BF790020E04CC5B2062D18D810
:103DD400680016185720C000305C00280FD0052852
:103DE400394604D0FFF78CFB089BD94A014648B2F8
:103DF400984200DC18467D2800DB7D203055681C85
:103E0400E3E7059F069ED34C206800280DD00025CB
:103E14002946FEF7A7FF09F0CBF9CF490A78012A12
:103E24001CD100281ED125601CE0CB4807990170E5
:103E3400CA480478002C04D001701720FEF760F9FA
:103E44002646C7480670C74814210170C648007842
:103E54008000C6490958F0B2884703E0002801D021
:103E640001200870FCF766FC00F0FAFBC0480078FB
:103E74001F210140022925D1BE480678103606705C
:103E84000E20BD49085E410F4118C9083022BB4DC0
:103E9400AA56921D4A430001101880B24624295D97
:103EA400490601D5F02102E0B549098809B208F0B4
:103EB40053FFB4490A788018401C40080870310642
:103EC40000D1E6E1FD4807990170AD48F021018079
:103ED400AD480178032901D100210170F848008818
:103EE400C01B82B2FB490B889A4200D90880FA4968
:103EF400C878002800D14EE1F8480188491C019196
:103F040001809F208000F04A105C1F210691084028
:103F14001021081AC7B2182F00D81820C0B2079071
:103F240078008018EE4942180798B84200D180E022
:103F340016460F2F00D9643673783478A509022DFC
:103F440006D8FB2B04D35800DF494018C721435C33
:103F540020460699084069D005950493089209F013
:103F640080FC0546DC48C07880072A465BD4630998
:103F7400022B03D0012B14D0002B25D1D948C05DCE
:103F8400411E884101216940014306D104980392EE
:103F9400029309F084FC029B039A581EC0B20128C4
:103FA40012D8D048C05D401E411E884128430BD121
:103FB400022B04980392029300D1401C0490C0B2D7
:103FC40009F06DFC039A029B059803280CD3C5489D
:103FD400C05D411E884101214D40054323D17078C5
:103FE400144600F051FE1DE00120602C014600D370
:103FF400002145400D4316D14B20042B01D09621BE
:1040040000E081001446052B00D1C100019880B264
:1040140008F0F4FE0029224605D10498C0B21446E3
:1040240009F03DFC2246AF48C255089A921C7F1CF9
:104034007AE70020A44FC4B20B2C00D9A6E00323D6
:10404400184660433E184B20C00031180891A74918
:1040540071180791315C0F2708463840A44A10189C
:10406400401E00780328069336D16000A14A125EF0
:10407400002A02D00AD4551E1CE0079A127855B2C1
:10408400002D17DBEA430A25554313E092B2551C71
:10409400AAB2AA420ED0032262438B4B9A18964BC3
:1040A400D256002A05D4521C52B20A2353435D1E31
:1040B40000E0D5438F4A121808090CD0082805924D
:1040C40000D9401C09F0CDFB002801D1864D7C3578
:1040D40008980178059A15808848055D39400C29AF
:1040E40013D10798007840B209F0BBFB002801D037
:1040F40001250AE003206043734908187E494056AD
:1041040009F0AFFB002800D000250898007838405B
:104114000D2812D10798007840B209F0A2FB0028BC
:10412400694F0CD0A8070CD47348305609F099FB9A
:104134000028069D05D1022503E0634F01E0FD2020
:1041440005406E480555601C75E7C046B70200007F
:10415400AE07002074010020C40D0020B90D00201A
:10416400B00D0020BA0D0020B80D00205001002031
:10417400AA0D0020C50D00203E030020960B002050
:10418400120E0020BC0D0020020E002000F02EFABA
:1041940000205149C8704878002878D058480178E0
:1041A40011310C220A400F230C469C430C2A06941E
:1041B400224600D00A460270702010400590134039
:1041C4000793302717409F2080003F49085C1F2138
:1041D40001401020401AC0B2089000203E49C6B2E7
:1041E400089886424BD2700037490D183C482C1869
:1041F400002F16D13A48285CC0210140402910D133
:104204008006801609F02DFB00280AD04F202D4986
:10421400085CC00701D1012001E03A48285CFDF7A1
:104224006FFF21788809022827D188068016890023
:1042340049B2592908DB192813D0C0B2182815D05F
:1042440017281AD1059812E0002F16D109F009FB9E
:10425400002812D02B48295C8020484009F01FFB1D
:104264000BE00698C0B2202803D006E00798002887
:1042740003D12448285C00F007FD701CAEE7002041
:10428400487012480178002901D0491E017009B014
:10429400F0BDC0B2322800D214E62F21695C8142FD
:1042A40000D80FE611202E21FDF73EFF285D000700
:1042B40000D407E606483221018003E6BE0D002043
:1042C4009C030020960B0020AE070020B70D0020B1
:1042D4009A030020A80300201F0E0020A203002040
:1042E4007D0200002F0D002083FF00005602000015
:1042F4005CDD00080603002057020000690D002061
:08430400C00D00207E02000044
:10430C00F0B585B00D4604464800B0490490085AF3
:10431C000390621D6078AE4F0028029228D0019560
:10432C000126955717782078401EC0B2FEF794FBF3
:10433C006278531E052B30D82902C9197B441B798E
:10434C005B009F442C3002023448C313C018584001
:10435C0005B2012000238D42064600DC1E468D422C
:10436C0000DB1846032A9A4F019D39D0064637E0E8
:10437C00A078002807D040B209F06FFA002800D1CD
:10438C00039700213DE0E178002004296DD32079CA
:10439C0060210140481E814132E006461EE0884201
:1043AC0003DC00261AE08842FBDA012616E00A221A
:1043BC0023783E3B062B00D85143854F019D09B213
:1043CC00062B00D8504300B2401A09F058FB2028A5
:1043DC0006DB002604E0401A464246417C4F019D14
:1043EC00A078002805D040B209F037FA002800D197
:1043FC000646B0B2421E01469141002800D10390FE
:10440C000020744B0843E2787349C978890713D4A8
:10441C002F465D5D032A15D1A07809F0EAF9014613
:10442C0000268542039B00D033468D42049800D071
:10443C004E1C3D46664F37E0213A564256413B46AC
:10444C00014630E0002804D0002D10D03D46604FCE
:10445C0015E00021012D17D1531E012B3D465C4F59
:10446C0018D8022A13D1104612E00146C9E70220DF
:10447C00104302283D46564F01D100200390501E98
:10448C00411E8841012105E03D46514F02E00120CB
:10449C0000210391212A3B4600D0039B212A01D005
:1044AC00064600E000260498484A1218494841552F
:1044BC000420205600280FD5207825280CD30492F0
:1044CC001D462538C0B209F012FA310645D0002835
:1044DC002B46049A02D175E0300673D018B200282E
:1044EC000BD4002B0CD0E0780A21414314395B1C0F
:1044FC0018B2814266DA002364E0E078022861D9C0
:10450C003D46207907276023014603931940202953
:10451C0005D12046049209F0C2F9049A207938405A
:10452C002F460299002829D0012810D115468878E9
:10453C00C978090208187D218900CA1D90420FD93B
:10454C00001DC0B200210A4600F0F2FA0FE0887894
:10455C0000211546FDF7DAFD0FE02B46049A31E0F9
:10456C00884204D940001D4940181D494056F1B2FB
:10457C000818401E80B2FEF76FFF2A462079039977
:10458C000140402905D12046154609F088F92A46F4
:10459C002079C106890F0FD0012902D115460D20B3
:1045AC0007E0182108401546182801D00E2000E01D
:1045BC000F20FDF7A1FD2A46E078C01E1D2800D86B
:1045CC0001273B46138005B0F0BDC0461E030020FA
:1045DC00FFFF0000880D00201F0E0020AE070020FA
:0445EC00CDFEFFFF02
:1045F000B0B5074807490C180025E9B2072905D8C6
:104600002046FFF783FE6D1C0934F6E7B0BDC046B7
:0846100079030000AE07002051
:1046180010B503467E3BDBB2042B0ED85800074B7F
:104628001B18074C18571B19884202DA19700846DC
:1046380003E0904201DD1A70104610BDAE0700205D
:04464800B7020000B5
:10464C00801E414241410348407C10220240100927
:08465C0008407047AE07002082
:1046640080B50D4809F0BFF8002803D00B48142189
:1046740001700CE009480178002902D0491E01703C
:1046840005E0FCF727FD8007C00F054908700448C2
:1046940000780449087080BD4C0C0020C70D002030
:0846A400C60D0020AD0D002041
:1046AC0080B5024808F0E5FC80BDC0464C0C0020EB
:1046BC0010B5064880780024002804D00F34C0B20E
:1046CC0008F0ADFDF8E7A0B210BDC0460C0C002000
:1046DC00F0B583B001200202264C0026204631465C
:1046EC0009F0E7F9152E2FD0142E05D003207043B6
:1046FC0021490818001D01E01F48801C0190057815
:10470C00761C029600272E4630061BD0F0B20428E9
:10471C0002D3215C00290ED0380605D0F8B2002651
:10472C00314608F081FDEFE700250198057000F097
:10473C0025F82F46E7E70299215408F070FD05464D
:10474C003746E0E7029ECDE700250B4FFC2D0DD040
:10475C0060190079002807D12E1DB978F0B208F045
:10476C0063FDBE7000F014F86D1CEFE7002003B081
:0C477C00F0BDC046AE0700200C0C002071
:1047880080B5034800214022FDF7BEFD80BDC0462C
:044798000C0C0020E5
:10479C0080B50348801C02210122FDF7B3FD80BDCA
:0447AC000C0C0020D1
:1047B00070B50F4C0025402620462946324609F0A8
:1047C0007EF91020E070A570667004252570E8B2AF
:1047D000FF2804D06D1CE9B208F02CFDF7E7FF209C
:1047E000002108F027FD0420A070FFF7CDFF70BD69
:0447F0000C0C00208D
:1047F400B0B50A4C0021402520462A46FDF7B6FCF8
:104804006078002801D16570284668402178042228
:104814004A40024350425041B0BDC0460C0C0020F7
:1048240003214143024840180079411E88417047E2
:044834000C0C002048
:1048380070B582B0032460430D4A131D1A18967888
:1048480001ADAE70185C5678360230182880614386
:104858005E1810463146224608F0E4FA30462946EA
:10486800224608F0DFFAFFF78BFF02B070BDC046A2
:044878000C0C002004
:10487C0010B503225043074908180479001D002184
:10488C0009F017F9FFF77AFF002C02D0204600F050
:08489C0003F810BD0C0C002014
:1048A40070B50446C5B2284608F0BDFC002803D004
:1048B400284608F0B8FCF5E7044EB178284608F01D
:1048C400B7FCB470FFF768FF70BDC0460C0C002045
:1048D400007803214143044840184179807900025B
:1048E40041180248084070470C0C0020FF0F0000DC
:1048F4000022C28042714280017003224A4304496B
:1049040089180A79027188790002000B7047C04641
:044914000C0C002067
:10491800F0B581B00D46044600780321414318489C
:104928004018417980790002401816490140608892
:104938000E1AB0B2904200D316463746380415D046
:104948002079002812D06179491C6171C9B208F038
:10495800C4FF287060790F2805D300206071207982
:1049680008F05FFC20716D1C7F1EE7E7B8B2B1B29A
:10497800081A618809186180C0B201B0F0BDC0464C
:084988000C0C0020FF0F0000E1
:10499000F0B583B0154602910446007900280BD18A
:1049A0006088002808D100F055F820712178032292
:1049B0004A4327498918087100952E4630063ED093
:1049C0002589FDF7C9FE281A00B2002835D42079C0
:1049D0000127002832D061790F2912D3002161719B
:1049E00008F023FC002806D1257900F033F80146B1
:1049F000284608F01FFC207908F017FC20710028D9
:104A00001CD061790F22521AD3B2F5B2AB42019693
:104A1000354600D81546EFB20001401C4118029EF1
:104A200030463A46FDF774FC6079281860710198A9
:104A3000401BF61902960646C0E70227E771F0B25E
:104A40000099081A618809186180C0B203B0F0BDEE
:044A50000C0C00202A
:104A5400B0B5084DAC78002C09D0204608F0E3FB33
:104A6400A870FFF799FE0021204608F0E1FB2046DC
:084A7400B0BDC0460C0C00208F
:104A7C00F0B581B01C4616460F460546FFF734FFCD
:104A8C0003207843054908183101817100214171D7
:104A9C00FDF75CFE0019288101B0F0BD0C0C002064
:104AAC0070B50446007803214143124840186188D0
:104ABC0041710F2213020B408179090212030A4043
:104ACC00D118090A817120790025002809D008F035
:104ADC00A6FB002805D006462079002108F0A4FB8F
:104AEC003546FFF74BFE002D02D02846FFF7D4FECB
:084AFC0070BDC0460C0C002047
:104B0400B0B582B01446042A09D1084AD27B0F25D5
:104B14001540012D03D1074A08F014FA04E000936C
:104B2400034A234608F03CFA02B0B0BDAE070020A9
:084B3400AAE60008EAEB000804
:104B3C00F0B583B02A4C2778052F01D900204CE022
:104B4C00064601910292781C20700B253046684372
:104B5C00244A10182449405C002805D0401EC0B2DD
:104B6C00FDF77AFF1F4A00E00020277075435619A5
:104B7C001E49775C08243C4008D1D1218900725C25
:104B8C0071180123C956090289184018019D18494A
:104B9C00715C4A1C42431748305C411C104608F0BB
:104BAC00D7F8002C07D0D1218900725C7118497894
:104BBC00090289184018F90700D04042029A002DCA
:104BCC0003D06921C900715C2970002A05D00749FE
:104BDC00711809784907890F117000B203B0F0BD44
:104BEC00C90D0020AE07002043030000490300005C
:084BFC0046030000470300001E
:104C0400F0B583B002920C4605461E48867D2846C0
:104C14001938C0B233225523FBF71EFCA01EC1B2C3
:104C24000527019528463A46FBF7DAFB0125B0072C
:104C340001D5390200E0A902029AD01312184240A9
:104C440010B2192670436A02801808F085F801062C
:104C54003206914200DC064677B20298002800DC56
:104C6400754201982818C5B2601CC1B228463A465C
:104C740008F0C0F9601EC1B228463A4608F0BAF9F5
:084C840003B0F0BDAE070020F3
:104C8C00F0B585B004A900250D7003A90D7022495B
:104C9C000E5637460F3700F047F804460E2F33D820
:104CAC007F443F797F00BF440D0D0D0D2F07070783
:104CBC0007070707291B1B007000184940181849E3
:104CCC00445621E0F0B20F30C0B204AE03AA314614
:104CDC00FFF72EFF0446307812490D5C357013E057
:104CEC0001AD3C222846214608F023FC2888029C72
:104CFC0000B208F0FEFD04A8352504E003A801214C
:104D0C00017004A82425057003A8017820B22A4656
:104D1C0008F0B0F905B0F0BDD8E60008AE070020E9
:084D2C00CB020000BCF40008FA
:104D34000D490956C01E062805D848000D494018DB
:104D44000D4940560DE0881C022804D20801084988
:104D54004018808D05E0C81C02D10448007800E0AA
:104D6400002000B27047C046D8E60008BC0D002001
:0C4D7400A6020020AE070020CB020000C9
:104D800010B582B01201044CA2180C24125F0093DB
:0C4D900008F08BFC02B010BDA602002051
:104D9C00F0B589B003931746064608A82022029264
:104DAC00027001250F980590054043480E9C069112
:104DBC00049601D132460FE0781CC2B20023304673
:104DCC00FFF79AFE0420204002D00699083906917C
:104DDC001830049942183848C057082605990E40D7
:104DEC0001D0BF210C40C7B201460F31042911D2AA
:104DFC0001920F37F8B208A907AF3A46FFF798FEB1
:104E0C003978022921D00129049D059F21D10299CD
:104E1C000C431EE0801C022825D207262640009653
:104E2C00600700D4121F002D049D00D00A32901F81
:104E3C00C0B20699C9B2039A334608F030FC333736
:104E4C0008A80770AD1F059F1CE030210C43049D82
:104E5C00059F08A90A78194B9A5C0A70390600D587
:104E6C000398019A01E003AFA1CF002E01D02A468E
:104E7C003D32D3B20699C9B202B218462646234631
:104E8C0008F0E1FB7807800F12D00420074001D016
:104E9C00FB200640002F01D00A3501E008480578B8
:104EAC00E8B208A90A780699C9B23346FBF7D2F9D9
:104EBC0008A8007809B0F0BDD8E60008C4F40008D2
:044ECC009C0D002019
:104ED000F0B581B01C4616460D460746064A08F056
:104EE00033F80C37F8B23036F2B229462346FBF7D6
:0C4EF000B7F901B0F0BDC046AFE100080A
:104EFC0070B51D4614460326059B1E407E3AD2B261
:104F0C00042A0FD81238C0B222467D3AD2B2FFF72B
:104F1C00D9FF002E11D0E0B27E2182220223FEF7AF
:104F2C0039F909E0224608F08EFB002E05D0049AD0
:104F3C0020462946FEF7F2F90446002E14D00B4801
:104F4C000078BD2810D120467E38C0B2042807D87E
:104F5C00E0B2400006494018FF21BC31445C00E03F
:104F6C007E24022007F04EFA60B270BDB00D002016
:044F7C00AE0700205C
:104F800010B50E2141430B484418DB204000205649
:104F900008F069FC002808D0FF20B830205608F03F
:104FA00062FC002803D1012002E0002000E0022082
:084FB00010BDC046AE07002051
:104FB800F0B583B01D4614460F46064623493846C9
:104FC80008F009FB102000904220394622462B4663
:104FD80007F0CFFF08980290002835D001940624E6
:104FE800204670434230C0B219490B7839462246F0
:104FF800FBF776FB6543019C281DC2B2781EC1B23F
:1050080040200923FBF788FB1148007800281BD0B3
:10501800A05D002802D000F021F800E0002040B296
:1050280000214122029B08F0E9F8C0B2412802D8C9
:105038000849085C00E02020A15D814204D0A05509
:105048000548007807F0E0F903B0F0BDEFEB000881
:0C505800CC0D002048E20008D30D002021
:10506400F0B50021094A0B46DDB2422D0F4600D0AF
:105074002746565D86421C4600D03C46422D02D04F
:105084005B1C8642F0D1E0B2F0BDC04648E20008A5
:10509400412802D80249085C00E020207047C0463D
:0450A40048E20008D6
:1050A800F0B581B01D4614460646002903D0002DF0
:1050B8000CD128460CE0002C04D06720822231460F
:1050C80007F079FF002D0DD128460CE01448007830
:1050D800C2B24F78087800928A1C3146234607F0FE
:1050E8005DFF08E0642000906620072231461346E1
:1050F80008F0B3FA0127002D0FD00B4800780028DC
:1051080003D008480078002807D00848037860B220
:105118007AB2002108F072F80446E0B201B0F0BD9E
:10512800D20D0020CC0D0020D40D0020D30D00207E
:1051380010B513460C46024602492046FFF7B0FF59
:0851480010BDC046E2E60008BC
:1051500080B5002A05D012B21030C0B208F079FA3A
:1051600002E0024A07F0F0FE80BDC0467CF4000871
:10517000F0B585B00392049101900825D548425FAF
:105180000621D54F795E891A8B0EC9188911D34B28
:1051900019700A23C35E785FC01A840E00193C465A
:1051A0008011CF4E3070C0B2C9B2CE4F3E78029659
:1051B000002901D092B2E280002801D09AB2228167
:1051C000C94A1378002B08D146233E462746C74CD0
:1051D000E35C3C4637469B0606D50020C049087074
:1051E000BE49087010700146084302D1608800284B
:1051F00001D0FEF7F5F8BE4E33780398FF28049AE5
:1052000075D0BC480078012811D0002815D1BB49C1
:105210000878012802D10020087002930093B84B4F
:105220005A5700201872012A09DB012208E02E2AB1
:105230001BD0B1480078002817D027463BE0D21198
:10524000029D012A16DB691CCAB2521A531E9A41EA
:10525000009B9D4201D2002A25D0019A1178039B20
:1052600099420CD2491C11701BE027460020A1492D
:10527000087020E052B2002A04D4294612E000212E
:1052800011700FE0002D009B01D0691E0BE0019A08
:105290001378002B039A00D05A1E019B1A7001222A
:1052A0000A700146009B049827462E2802D101204F
:1052B000904A1070029193480078401CC4B21D4679
:1052C000844201D00020C443FDF7A8F8002800D193
:1052D0000446E0B23D282B46049A04D301208549B8
:1052E000087085490870874804703C467D4F8648A1
:1052F0000370814800780028029D19D0104660385C
:10530000052834D910464238032852D9212A00D121
:1053100081E02E2A78493BD0812A75D08E2A77D019
:10532000BF2A00D0C2E00025019805700D70BDE0D5
:105330006B480078002853D01F4601990978091A54
:105340004AB20020002A00DC0146CAB2039B9A42FE
:1053500000D30399019A117061490870E8B23B4685
:10536000B84200D31D4601985E4F049A39E0800090
:1053700001A108586049874691530008AD540008C0
:10538000CD5300082F5400085554000875540008E8
:105390000398FF2800D189E0087841424141564AEC
:1053A00011705549002800D080E052480121017059
:1053B0007BE0C0467844007940008744013345587B
:1053C00001980078039988424B496FD008780028EB
:1053D0006CD101980078039988425FD300205EE089
:1053E00001980078002889D03C480078002800D136
:1053F00084E72D1A68B2002800DC0025E8B2984244
:1054000000D27BE71D4679E70020087001203EE0CE
:105410008E20FDF7C7F838490878002836D00020DC
:10542000087043E001980078002833493ED008789E
:1054300000283BD101980078002801D0401E03903D
:105440000198039901702CE0E8B298422A4901D1F1
:105450001D462BE0002B29D00878002826D12B49A7
:1054600000200870E9B2994214D305461DE02806D1
:10547000214911D0002B19D00878002816D12348D3
:105480000021017028060FD06B1E0DE00020FDF7F3
:1054900067FF0AE06D1C08E0002507E0401C019949
:1054A0000870E8B2984200D31D4613493D700020B1
:1054B00030700878002801D0022100E00121144A50
:1054C000117061880843411E88411249087005B077
:1054D000F0BDC0464E03002068030020CF0D002021
:1054E000D10D0020D50D0020D00D0020960B0020FE
:1054F000D70D0020C80D0020CC0D0020D80D0020B5
:105500007F0D0020D60D0020D40D0020B00D00200E
:08551000D20D0020CD0D00209A
:10551800F0B581B001201E4C00902256207841B28F
:105528002A2007F03DFF022022560320215656204C
:1055380007F036FFFB270420C6B2062E26D87000D7
:105548001449085E0099890240185D2107F002FCA1
:105558003721091ACCB2401C45B238463F30C0B298
:1055680021462A460C4B984738464030C0B221465F
:105578002A46094B9847084B38464130C0B2214665
:105588002A469847701CF9B24F1DD5E701B0F0BD07
:0C559800940D00204E030020E5030008E5
:1055A400F0B583B0019102907F24E02672B2212AE3
:1055B40040DA0198002805D01F480078510100F016
:1055C4003FF804E01D480178500107F018FFC10EB0
:1055D400401800B247117DB2E0B27F28384600D0AF
:1055E400204644B2281B08F04EFA0106490E0ED09C
:1055F40002997118CBB2AC4201DB41194D1E202136
:10560400491BC9B242B21846FAF7EAFE07E002980B
:105614003018C0B22021C91BC9B2FAF7CDFE380632
:1056240005D002983018C0B22021FAF7C5FE761CC6
:105634003C46BBE703B0F0BDDA0D0020D90D0020D5
:10564400F0B583B004460129029101DB002500E096
:1056540001252046FFF792FC06462046FEF7F4FF9C
:10566400474247412F400E20604322490818B100A9
:1056740040180190C019D5214900465C2046FEF728
:10568400E3FF002811D00120800202990818C10FFD
:105694004018400805B270B207F0BEFD0146284626
:1056A40008F06BF94500002707E070B207F0B4FD7D
:1056B4000146029808F061F905460198C0196B216A
:1056C4008900405C643040B2002164263246FEF713
:1056D400A1FF29B24843314607F03EFB0546204668
:1056E400FEF7B2FF002801D003482D1828B203B0FA
:0C56F400F0BDC046AE07002000FCFFFF28
:10570000F0B583B002901F480478204600F03CF8C2
:1057100001905C20002640223146FAF763FE072CF8
:1057200001D8012000E002200090072C01D80524B8
:105730001EE009241CE07D010098C5400198C05777
:1057400040016321C94307F009FB02998F4205D14B
:105750003A35EAB21E30C1B2052304E03B35EAB265
:105760001F30C1B2032310461A46FAF7D9FF761C40
:10577000F7B2BC42DFD85C200021FFF713FF03B073
:08578000F0BDC046D90D002068
:105788000749072804D8052242438818F32103E073
:10579800092242435018E321490040187047C04687
:0457A800AE07002028
:1057AC00F0B585B006464B4D2C784B4808F0AFF859
:1057BC000394072C01D8052200E00922474C20460F
:1057CC0031460192FFF7CEFC0096BF2E02D1444821
:1057DC00002101702878421C2A2000260123314622
:1057EC0007F031FF2878FFF7C9FF04903D48077890
:1057FC002478601F0290052E22D02546B4423B46E9
:10580C0000D0002304988257F0001030C4B2182046
:10581C00214607F018FF039808280ED3042E0CD04D
:10582C000298B0423B4600D0002304988019052111
:10583C0042563020214607F006FF761C2C46DAE74C
:10584C000198844200D000270C203821264A3B4680
:10585C0007F074FB019884422AD124480078002870
:10586C0033D023480099017002941D4C27780320F3
:10587C00C14378B204260023324607F0BDFC2070E9
:10588C00029CC1B2B94220D00399072900D8022644
:10589C0074421925454367B2BE4212DB3846684351
:1058AC00314607F055FAF119049A5054641CF2E78A
:1058BC00049D28576321C9436422FDF72FFD285509
:1058CC0003E0022006F09EFD029C2046FFF712FF2B
:1058DC0005B0F0BDD90D0020ECE60008DC0D002071
:1058EC00DB0D0020D20D0020B2E10008CC0D002011
:0458FC00B00D0020CB
:10590000F0B583B00646264808F007F8254C0F226C
:1059100020463146FFF72CFC207847B2384600F08D
:105920004BF800902E2E03D0642E01D0602E0CD1A7
:10593000002F0AD41C4807703046FCF733FE1B4882
:10594000002101701A48FDF731FD0821002401975C
:10595000072C1CD000980019C5B2781B464246415E
:105960000291CFB200203946124A334607F0ECFAD2
:10597000092D01D3162000E011206A1C3946334658
:1059800007F067FE641C02990831019FE0E7002FD1
:1059900004D4054807706420FFF7B2FE03B0F0BDE1
:1059A000B9E10008DD0D0020D90D0020B00D002068
:0859B000AD570008C0E100083A
