:10000000001800208DC40000A5BA0000A7BA0000A7
:1000100000000000000000000000000000000000E0
:10002000000000000000000000000000A9BA00006D
:100030000000000000000000ABBA0000ADBA0000F4
:10004000B1BA0000B3BA0000B5BA0000B7BA0000F8
:10005000AFBA0000B9BA0000BBBA0000BDBA0000D8
:10006000BFBA0000C1BA000085AD0000C5BA0000EB
:10007000C7BA0000C9BA0000CBBA0000CDBA000070
:10008000CFBA0000ADC0000055C70000A1BE0000FF
:10009000D7BA0000D9BA00001DB70000DDBA0000D1
:1000A000AFBA0000DFBA0000E1BA0000AFBA00004A
:1000B000E3BA0000AFBA0000E5BA00004DBC000092
:1000C000F0B58DB04921C14A515CC14A525C04214E
:1000D0000B0607D0032313400CACE154491ED2B2E7
:1000E0009208F5E7082800D969E11021800001A2F3
:1000F00010588746190100003F0100004F01000021
:100100006D010000B901000005020000610300005C
:100110008B030000890300000CF0E0FB0CAC20789E
:10012000AE4DA847012141706078A8470221417077
:10013000A078A84703214170E078A84739E00CA8CF
:1001400080784000A44A8018AB49012306E00CA83F
:1001500080784000A04A8018A749C1234354A74B88
:10016000D25C920600D426E1002226E10CF0B6FB18
:100170000CAD2C78994E2046B047CE2787700121D0
:100180000B9141702046B0478770022646706C780C
:1001900020469249884787700B99417020468F4CC2
:1001A000A04787704670A878A04703214170E8787F
:1001B000A0470421417002E10CF090FB0CAD6C787B
:1001C000864E2046B047CE27877002210B914170A2
:1001D0002046B047877004264670EC7820467F4959
:1001E000884787700B99417020467C4CA0478770E8
:1001F00046702878A04701214170A878A0470321C4
:100200004170DCE00CF06AFB0BF0BEFF0127734D80
:100210003846A8470A210691417002200890A84755
:100220000B210591417003263046A8470C21079108
:100230004170042004460B90A84747700997052594
:10024000284666498847654A07210171C47046708F
:10025000C17909043C042143090CC17128461746A1
:1002600090473A460821019101712F46C5704670AA
:100270000396C17909042143090CC17128460A95E6
:10028000154690472A460921029101710625C5703D
:1002900004954670C17909042143090CC17138469F
:1002A00016469047099BC3709C218170019941704B
:1002B000C1790904F92212040A4099045118090C61
:1002C000C1712846B047F821C1701E218170029982
:1002D0004170059D2846B047069901710B99C17080
:1002E00046278770039E4670C17909042143090C93
:1002F000C17128463949884705710A99C1708770CC
:100300004670C17909042143090CC171284633495B
:100310008847C17909042143090CC171079901710A
:100320000499C170877046702B481F21C175827D6A
:100330000A4020328275002029492A4DA8472A49BF
:100340000998A84729490898A84729493046A84745
:10035000284C0B982146A8470A982146A8472EE02A
:10036000062420460AF0C2FF32210172F822C27030
:100370008170447020460AF0B9FFCE210172082234
:10038000C270817044701AE0082108460AF0AEFF7E
:10039000772181710F49104A082353549D21890008
:1003A00053541423C370642383700923437050187B
:1003B0000E21817003E06322D24340184270022074
:1003C0000BF046FE0CF026F80DB0F0BD9C030020AB
:1003D00082ED000075020000B4FFFF1FEDB20000C7
:1003E00012F5000065C4000017F500001CF50000C0
:1003F00021F5000026F500007B02000071030000DB
:10040000FFFFFFFFFFFFFFFFFFFFFFFFFEFFFFFFFD
:10041000F0B595B0EC4902270F70EC4C072221464D
:10042000069209F0E5FA0146E94E3078401EC2B264
:100430002046149104F090FEE64D2878411ECAB281
:100440000A2A0BD8F44BD533D340DA0706D048B28A
:100450008000F24908580BF0BBFC28780E2801D91F
:1004600001F0E4FA217813914000C0467844808876
:10047000400087440E00DB0A1D0047008C00DB0AA9
:10048000DB0A9E00DB0A5202DB0ADB0AEA031D04D8
:100490005504EC480D300DF048F90E2030701398DB
:1004A000401CC2B2E84807210CF05AFD01F0BEFA28
:1004B000E6480DF03AF906203070E5480478082542
:1004C000E44928460DF0F9F8139F7B427B41E24E48
:1004D000B07D4209E149284609F05AFF4001B17D4B
:1004E0001F220A401018B075F07D0025012F01D0A1
:1004F00000F023FC40B224210CF01AFAF0752346D8
:1005000000F01CFCD6480DF010F911203070D548D1
:1005100003210170D4480578139E70B20BF016FFCA
:1005200005900F2E01D900F018FC7000CF4C205A16
:10053000C10B401800B24010C04942184E200021A3
:100540000DF04EF9002D01D000F015FCC8480078E0
:10055000802801D000F00FFC05207043BE49081828
:1005600057218900425C0599711A4900615A002A95
:1005700000D04942FF225E328154090A801841703E
:1005800002200BF065FD0BF045FF00F0F4FBB948CD
:100590000DF0CBF805203070B74800260670B74C38
:1005A0002578139F002F01D100F0E8FE334600F0BC
:1005B000EEFEB3480DF0B9F80C203070A9480321C5
:1005C0000B910170A84800781090139840B20BF07E
:1005D000BDFE0A900026072E01D101F027FA9C48A3
:1005E0000478F0000830C5B200274C22384629466E
:1005F0000DF0E7F80A9832468019C6B2082E01D8E5
:10060000312100E038210D920818C2B20520294698
:100610000DF0D7F80B9870438F4909184B20C00094
:10062000149112900B5C13988642264600D03E46E9
:10063000109C002C304600D03846C0B200900F20ED
:100640000E9003400D2029468E4A0CF08FFF022C9D
:10065000304600D038460C90012C119600D03E4612
:100660008948149908180F901298085C0E99084050
:100670000CF036FA0746022818D0012F25D0002F9B
:1006800036D10F98007840B2252809964BDB7F4978
:10069000149A515682220C9BDBB2009301927D3159
:1006A0002538C2B2022A58D30B4658E0774814992D
:1006B0000A5C0C98C3B234460E46502029460AF014
:1006C000CBF90F980278E3B253E00F980078F3B2B9
:1006D00042B2362029460AF0C5F86C4814990A56E9
:1006E0000C98C3B20E464D2029460AF0BBF844E0F0
:1006F0000F98007866490091202140B200280891A7
:1007000000D50E43F3B2C109414048B2401C82B249
:10071000492029460CF087FF5C48149908560028A8
:100720000CD40C990DE0594814990A560C98C3B290
:100730000E46632029460CF0D0FF16E00C99089A6B
:100740001143CBB2C109414048B2421C6B2029463B
:100750000CF0C3FF1098149E10E00A234B4342B2E2
:100760006420294608F074F9149E0F9802780998BD
:10077000C3B2362029460AF06FF910981199129ADF
:10078000B6180328084600D00020C3B2307802090A
:10079000082A00D9521C682029460AF063F81198EB
:1007A000000600D1B6E03B480078002800D1B1E057
:1007B0001098032800D9ADE01098C046784400791D
:1007C0004000874409213570D90500200406002027
:1007D000FF0500209E05002030780E9D28400E2148
:1007E0000CF0A6F828403178F0220A401118317038
:1007F0000CF076F9874200D18CE000202349149A4E
:1008000050540F99087085E0032F00D982E004A1AD
:10081000CF5D7F00BF44C046DC050000E0C10000A2
:100820000653065C0F9D287840B200212E2255E029
:10083000032F6FD802A1CF5D7F00BF44DC0500000D
:100840002D535C627FE8000064BD000051F200009F
:10085000D8050020E5E60000B4FFFF1F9AED000078
:1008600078F40000DD050020DB050020EAFAFF1F18
:10087000A90500201AF40000AF050020E0050020C3
:1008800079EF0000BDE400005602000057020000AE
:100890004FF50000D3050020F54D149E70577C21C4
:1008A000C9437D2233E0307800090E9D29460CF0C3
:1008B0003FF8317829400001081830702AE0ED48EF
:1008C00001780F9D287840B24AB2514249B205E002
:1008D0000F9D28783121C94340B263220CF010F9F2
:1008E000287017E0E24D149E7057E24909784AB229
:1008F000514249B20BE0DE4D149E705700212E226A
:1009000005E0DB4D149E70573121C94363220CF082
:10091000F7F870550D9E761C5DE6D7480CF005FF84
:1009200019200B903070D54800780F90139840B282
:100930000BF00CFD09900022072A01D101F076F896
:10094000099880180106D3000833119300290A92F0
:1009500017D0C4B261009F208000C94A105C1F25D7
:10096000139B14949C4202D10222C64C2270C44AAA
:100970008A1828401021149C102C0E950BD8C24CBC
:100980000AE01398002800D13EE19F208000BC4976
:10099000085C00254BE1BD4C1219081A1090002587
:1009A0001292022D00D94DE100200F99A94201D0E9
:1009B000044601E0B6490C781499994200D00446E7
:1009C000E6B2701E314681414F001098C0B21499B2
:1009D000814214D9002D2ED01178012D67D11198A4
:1009E000C0B24A09AB493B4609F0D2FC400112991A
:1009F00009780E9A1140129A0818107001E1002D22
:100A00003DD0012D69D112980078810902290B9FF0
:100A100001D098490F7881068A16800040B2592883
:100A200075DB00961198C1B2173AD3B245209A4AA5
:100A30000CF09CFD71E011980C94C4B220469749CB
:100A400017460CF03AFE162000230D942146149A06
:100A50000CF0DFFD3A780C9800067ED00E9C224008
:100A600084480078401E43B2002110461A460CF01C
:100A700047F820403978A1430A183A706EE011987F
:100A8000C6B200203146149A03460CF02EFE129C8A
:100A900020788209304682493B4609F079FC800182
:100AA00021783F220A40101822462070A9E052788F
:100AB0008809032848D30921092A00D30A46129F2E
:100AC0007A70501CC2B211980D91C1B260203346A9
:100AD0000BF0D8F80D993A4674E0129A1078810913
:100AE000022943D00120012958D11056C11788434B
:100AF0000F270F2800DB384650700096C3B21198BC
:100B0000C1B27820674A0CF031FD00216EE01198E7
:100B1000C1B24520334609F0A5FE2006129A70D0D6
:100B20005448017810787AB280068016494249B25A
:100B30000BF0E6FF3F21014012980078C0220240EE
:100B40005018129A10705CE0FA2A31D81198C1B28C
:100B5000662033460CF0C1FD32E00E9C22401E2080
:100B60000D99334609F07EFE129A4AE00121525651
:100B7000800040B259282BDBD01782430927092A6D
:100B800000DB3A4612984270501CC2B21198C1B2B2
:100B9000602033460BF076F8002127E012561198BA
:100BA000C1B2782033460CF098FD7D2783211DE0EB
:100BB0001198C1B20832D2B2542033460BF0B8FAC1
:100BC000FF21129A20061CD050780BF0BBFE16E0D5
:100BD0006F276F2A00DB3A461298427080321198D4
:100BE000C1B2782033460CF078FD80212006129A9D
:100BF00007D00120105649B23A460BF081FF129AF5
:100C000050706D1C139BCCE600201E4908709F207D
:100C100084001B4F385D1F2630401D490D78102180
:100C20000BF086FE3040395DB143081838551E4937
:100C300000911F22024008321198C1B26C202B464D
:100C40000CF0F1FC0A9A521C76E618480CF06DFD87
:100C50000A203070002113980428149100D9C2E1B1
:100C60000BF0CAFE0027012011903E46BEE1C046AF
:100C700057020000AD0500201BF00000DB0500203E
:100C8000B4FFFF1FDD0500207B020000DF02000033
:100C9000D80500201BEA00000FEE000062F50000FE
:100CA0002AF400009AE500002BF00000D4F40000C4
:100CB000F2480478F2480CF038FD139F0A2F00D94F
:100CC000FCE10BF099FE10203070052F01D900F0E7
:100CD000A0FC1094002F02D1EA480921017079424A
:100CE0007941E948007800910821E84D0A241191E2
:100CF0002A46234608F0DCFF012F01D000F0EEFC6D
:100D00001498602803D1E148807A0CF02CFDDF4D67
:100D1000285731210BF00CFEA872109B00F0E0FC6C
:100D2000DA48C57BDA480CF000FD0F200540012DA4
:100D3000109000D148E2042047E22B46C2B2662060
:100D4000102109F089FE307E022F00D051E240B21E
:100D500064210BF0EDFD30764CE2102E0BD1CD4826
:100D60000078802807D1CC481921017080200BF031
:100D700037FD08F015FA7C200390C0430D90002148
:100D800004910F95072900D11AE105980A18D4B2E9
:100D9000C80009900830102C00D113E110916100B7
:100DA000BE4B595A0C91052112946143B74B5C1804
:100DB000572189000A91675CFF210B915E31655CC8
:100DC00061180E914E78C1B20492501CC2B200203C
:100DD0001191149003460CF088FC30024019002F4A
:100DE00000D040420F9D0C99081A00B27E237F224A
:100DF000002F194600D01146322800DC2D21002F8B
:100E000000D01A460D9B4B339842139E00DB0A46D6
:100E10004B2011990CF0D5FC9C48817D02200840A4
:100E200001D0039900E06321C94308911099149BF4
:100E3000002801D07D2000E0642007900698099AE0
:100E400002430992AD20400020180C900B985C30B2
:100E500020180B900A9820180A90129A042B00D39D
:100E6000ACE02846584011467140014301D00024AF
:100E700001E082480478E5B268426841884909780F
:100E80004E424E41064302D10020864908702B2075
:100E900000017E49085C00270028149310D001212E
:100EA0000E9A5156090212788A1891B2002907D079
:100EB000824201DD074603E04742BA4200DB0F46AB
:100EC00038B20A210CF075F97F21149A11400229D9
:100ED00022D0012947D0002961D101250E99485718
:100EE00000020978421820200443E3B22D20119912
:100EF0000CF0F3FB002E139E5BD10E9C605700029A
:100F0000217840187D21CA000223674906F0C6FEF9
:100F10002070000A60704CE00B990978643149B286
:100F2000401801B27D2900DB7D2002B266201199B4
:100F30002B460CF0D2FB380406D00998C1B23220FF
:100F4000382209230BF076FC002E139E31D10B9C26
:100F500020781821C943643040B2079A0BF0D0FDC5
:100F60006438207025E00C99097864394CB2001976
:100F700001B20D9A914200DC0D9802B248201199FD
:100F80002B460CF0AAFB002E139E12D119222046EC
:100F900008990BF0B5FD64300C99087009E00A9CC3
:100FA000207811992A460BF075FC411E884120706B
:100FB000139E149B5B1C0F9D10994EE7491CE1E6A4
:100FC0003820049AD1B210290BD110214E40324959
:100FD000097831434B424B41C1B21220334A0CF0E5
:100FE00020F900F023FD05260127119123480478FC
:100FF00008252F4928460CF060FB3A4631321E2066
:1010000029460CF0DEFB3946139FBE42129423465C
:1010100000D0149B05204843264A115C1418012077
:1010200014902056009300024218472029460BF0E6
:10103000E3FEBE4215D120483C2202703B20C14352
:10104000002528460BF05CFD2178627812025118C9
:10105000081801B2002900DC28462070000A6070E0
:10106000139F3546701CB84200D0F6E0022020568F
:1010700013210BF05DFCA0700122EFE0D8050020E9
:10108000E2F30000DD050020DB050020B4FFFF1FB8
:1010900078F30000A9050020D4050020EAFAFF1F1C
:1010A000D3050020AF05002018FCFFFF8AEF0000E9
:1010B000A0EA00007B050020B3050020102012905C
:1010C0003070254608249B4920460CF0F6FA384635
:1010D0000B3843424341984EB27C984920462C46F7
:1010E00009F056F9B074384600270C2800D03C4669
:1010F000601E2146814114208F4D2A5600916620A2
:101100001299234609F0E4FA2875139C20460D38FD
:1011100042424241687C0007C00F18210CF0A0FA3F
:10112000C007000F697CF7220A4010186874204637
:101130000E3842424241287B8007C00F20210CF02C
:101140008FFAC007800F297BFD220A4010182873F0
:10115000FF20460001253C46072C01D100F066FC2B
:101160007548437D2B40581E83417548025D3846C3
:101170003F30C0B2282107F005FD13980F281ED17B
:1011800006207049087070480078844217D13846AC
:101190003E30C0B22721082209230BF04BFB1498E4
:1011A0002E2802D01498202809D16349487D684030
:1011B000487502200AF04CFF0020644908706D0059
:1011C0003540FF1D641CC7E705203070604800787B
:1011D00014905D480078129000245E4920460CF07F
:1011E0006CFA554E707C1399002900D19BE123467F
:1011F000A4E12C46C2B25420182123460BF07EFAFB
:10120000F81E42424241B07D4007C00F2021524C9F
:10121000A047C007400FB17DFB220A401018B075EF
:10122000381F424242410807C00F2821A047C0078B
:10123000000FB17DF7220A401018B075781F4242A6
:101240004241C806C00F3021A047C007C00EB17D83
:10125000EF220A401018B075E8E300222F46119ED5
:10126000002E149B00D181233C20102108F076FD34
:1012700003201190225602252F4300211398874204
:10128000129B00D00B461091002B284600D01198DD
:1012900000905A20182109F01BFAE0701398381AB0
:1012A000401C43424341227920202C4909F070F828
:1012B0002071214C39462A4F002E02D137200001DF
:1012C00000E028482618129B3078891C139A914216
:1012D00000D0109B002B00D0119D009542B24F20F2
:1012E000282109F0F5F97A791F496254FA781F4BE1
:1012F000E254FA791E4BE2543A7A1E4BE2541E4AEB
:10130000A35C7F251D407B7ADB01EB18A354307072
:101310007878A073387860736018B9794170B878BC
:10132000E072387914990840217BFE220A40101897
:1013300020737BE359E90000B4FFFF1F53EC00006A
:1013400022F40000DD050020DB050020D20500208E
:10135000D8050020FBEF000095C80000B2ED0000AA
:101360007B0500206F030000AB0200007B02000041
:10137000AD020000AE0200007103000068B203225B
:1013800000210B460CF036FA054620700123681C3C
:10139000C2B208243046214609F05EFBEDB2284671
:1013A0000AF08CFC034600962A20FD4A214614933D
:1013B0000CF0DCF8FB490F9420460CF07EF9680035
:1013C000F9490C5E28460BF059FA01230096019367
:1013D000652C194600DB314612967C22D243193225
:1013E00094421E4600DB4E001193002800D0129E4E
:1013F000751EAE41781E44424441204630401821BB
:101400000D910A46149BE94FB8471298009001903D
:10141000681E85412C403021109120460D9F3A4690
:10142000149BE24CA047119B009301931398801EDC
:1014300044424441264028220E92304639461F46F7
:10144000149BDA4EB0470097129E01962C4020461E
:10145000109C21460E9A149BD44DA84700960196E5
:10146000139FF91E484248411E2563232946224600
:10147000CE4CA04700960196391F48424841382279
:1014800062232946A047CA4D28780BF0F7F95C245F
:101490000028204600D03C204022314609F0A0FA26
:1014A000C44811990170204608F0F8FD28784100E1
:1014B000BD4A555E1924214669430A0E8F182946F4
:1014C00008F028F906463A12722010990CF088F9B3
:1014D0007443200E2018021254200F990CF080F94A
:1014E0006801FF214900891C4018820D8018850A77
:1014F00028465C30C0B2720151188A0D89188E0AD4
:101500001D21891BC9B20724224609F069FA593501
:10151000E8B22021891BC9B222460CF05CF9A5482B
:101520001299017082E2400907210BF001FA717CE7
:101530001F220A404001101870740123129EC0B28D
:10154000420931327220214607F01CFB002E14980C
:1015500000D020461399012900D020460090242075
:101560000824954A21462B460CF000F8002D1194D2
:1015700002D00120914C2EE0082091490F900CF0F0
:101580009CF80024012E149800D0204613990129BC
:1015900000D020468949097C0090881CC3B24820AD
:1015A000884A0F990BF0E2FF022E00D01494139892
:1015B000012800D014941320804C2056322141433E
:1015C000412080000818283002B270200F99149B27
:1015D0000CF083F80220139901292E4600D0A4E1D3
:1015E000794908707948007800282E4600D19CE19E
:1015F0001298022800D171E1012800D17AE1002877
:101600002E4600D082E1012128460BF091F90646D2
:101610007CE108246E4920460CF04FF8B81F424286
:101620004241664DA87D8007C00F21460CF018F896
:10163000C007810FAA7DFD2313405918A975002802
:1016400015D1AD2040002818D521490069188842DD
:101650000DD2017849B2002901D500210170012184
:101660004156012901DB00214170401DECE7F81FC4
:1016700043424341F84FE85D8006C40F1020F7490C
:10168000224608F085FEC107890EEA5D20239A43B1
:101690005118E95501263040A04202D009F054FF0C
:1016A000E95D13980838424242414806C40F1821A8
:1016B00020460BF0D5FFC107490EEA5DBF2313405A
:1016C0005918E9553040A04201D009F03DFF0AF019
:1016D00003FF002800D1C2E08122C1E0A87A0023E4
:1016E000DF49009141218900C0B2421858201021E1
:1016F0000BF099FF1820DB490BF0DFFF00240125D8
:10170000CB4BE7B2082F65D212956F26A01EC0B250
:101710000125032817D8D748805D0421014012D045
:10172000D148185C0025042F06D0022F0BD1830866
:101730004E201821452203E003095A20182149228E
:101740000BF088FDBA4BCB48805DC0060ED5062F46
:1017500009D1B748C549435C6620182141220BF0E6
:1017600079FDB34B0025072F119E00D02646002D92
:10177000129D11D0BC48185C2840411E8841009041
:10178000F0B2BD490A18062070434230C0B2182199
:1017900001230BF0A4FDA64B741C6D00B1E7C046FD
:1017A0000DF20000B6EC000052FBFF1F559B00003D
:1017B000E0050020A40500200BF00000B4FFFF1F8F
:1017C0004BF5000012ED0000DD050020D3050020E0
:1017D0007AE70000139E022E21D1412017213822E2
:1017E00009230BF027F8924B1498602802D0149824
:1017F0002E2814D114980AF0F3FF09F0B3FF8C4996
:10180000994A885425200BF0E3FD8949974A88546A
:101810008E480021017002200AF01AFC844BF01E51
:10182000424242418C4C185DC006C00F202529461B
:101830000BF016FF7E4FC007C00E395DEF220A4045
:10184000101838552B20042E2ED10401385764214E
:101850000BF06EF838552021109D0D4326E08022B4
:10186000139C602020210BF0ACFF20460938424237
:101870004241687C304028210BF0F2FE3040697C08
:10188000FE220A40101868740A3C62426241C8068F
:10189000C00F30210BF0E4FEC007C00E697CEF22C0
:1018A0000A4010186874C1E00001385CC2B27820A8
:1018B00028212B460BF011FF701F434243419F200C
:1018C0008400385D42093020694908F061FD40011B
:1018D000395D1F220A4010183855A7E0002D2E460A
:1018E00014D1132020560321C9430A220BF008F912
:1018F000E0740AE0002D2E4608D110202056012168
:10190000C94304220BF0FCF8207400263046109BDB
:101910001840E17BF0220A401018E0731940B142F0
:1019200003D0002020740AF089FD002D01D010257D
:1019300031E0607E20251399022908D140B213219D
:10194000C94314220BF0DCF86076212300E02B461B
:101950003949009140B205214143E1318AB24C201E
:1019600010210BF060FE1827344938460BF0A5FE15
:101970001398C01E43424341A27D012422403049B6
:10198000384608F005FD2040294B997DFE220A408B
:10199000101898750427012E48D12A4928460BF0C3
:1019A0008CFE1398B84213D13022002630462946C7
:1019B00033460AF02FF91F4C2078802808D122489E
:1019C0000AF006FA2148067020780AF009FF26700E
:1019D0000120074311980543BF2080001449085C8B
:1019E000400703D11A4928460BF067FE1398B84206
:1019F00013D1302200242046294623460AF00AF952
:101A00000C4E3078802808D112480AF0E1F90F48CE
:101A1000047030780AF0E4FE3470781C1399814227
:101A200004D10835012128460AF0D6F815B0F0BDDA
:101A3000B4FFFF1FA9050020B5F0000081F30000EE
:101A400002F30000F8ED0000C18D0000D205002077
:101A500037F10000D57A000071030000EBEF0000C1
:101A600068EF000024E90000AF020000C10300009D
:0C1A70004CED00009C030020F8F2000088
:101A7C00F0B58BB0194901260E7019490978C907C0
:101A8C0001D0042200E00322164C214607F0AAFFE5
:101A9C000746154D2878401EC2B22046394603F041
:101AAC0055FB124800780B2801D900F07BFE0197FA
:101ABC0002960F490F7826780A9640007844808861
:101ACC0040008744170029005D00B000C3003101BD
:101ADC009D01C601BA02C202FB023E03D9050020D9
:101AEC00AC050020FE050020FF0500209E0500200F
:101AFC00D8050020FA4823300BF011FEF948007885
:101B0C0001220240D11C0A322A70701CC2B2F64863
:101B1C000BF020FA00F046FEF4480BF000FE062015
:101B2C0028702E25FA48425DFA480090002E07973F
:101B3C003C4600D000247620082123460BF06DFD96
:101B4C00002CF34F07D078570A212D220AF0D2FF30
:101B5C0078550AF0D3FE1020EF490BF0A8FD312583
:101B6C00785D0024012E00D087E3EC49097840B25F
:101B7C004AB2514249B20AF0BDFF7855079B7DE34A
:101B8C000797E7480BF0CBFD062028700820E549A5
:101B9C000BF08DFD5C273146DD4EF05DC41D4025FC
:101BAC00002906D10798054360B207210AF0BAFE56
:101BBC000446E2B2662008212B460BF088FDE01F9C
:101BCC00F0550A9D681E434243414324305D800614
:101BDC00420F1020D44908F0D5FB4007800E315D30
:101BEC00C7220A4010183055A81E434243414F24C7
:101BFC00325D042A00D304221820CC4908F0C2FB21
:101C0C00032800D9072030550A98032800D097E301
:101C1C004D243057012164220AF06CFF30554023CB
:101C2C0007990B438FE3C2480BF079FD062028700F
:101C3C000820C0490BF03BFD002E01D100F06AFCDE
:101C4C002F20B349085C402300F06EFCBA480BF01F
:101C5C0066FD06202870002E02D1B84809210170BB
:101C6C0071427141B64800780091A94C224651321C
:101C7C0008210A2308F016F8701E434243414625FA
:101C8C00605D4007C00F1021AE4A0BF04DFCC00741
:101C9C00400F615DFB220A4010186055B01E434294
:101CAC004341C806C00F1821A74A0BF0EEFCC00731
:101CBC00C00E2346615DEF27394008186055F01EB1
:101CCC004242424134464C26985DC006C00F20214A
:101CDC000BF0C9FCC007C00E8D4A915D3940081845
:101CEC009055201F43424341505D17468006C00F5C
:101CFC002821964A0BF0C9FCC007800E795DDF22C3
:101D0C000A4010187855601F43424341B85DC00922
:101D1C0030218F4A0BF008FCC001B95D7F220A40CC
:101D2C001018B85500F03EFD07978A480BF0F7FCE9
:101D3C000A202870052E00D918E30AF057FE082552
:101D4C00854928460BF0B3FC724272415D26704FF8
:101D5C00B85D0124204029460BF07CFC20403A461B
:101D6C00B95DFE273940081890550A98401E114657
:101D7C004242424146268D5D2540102128460BF0FB
:101D8C0069FC08942040624A915D39401746091855
:101D9C009155A84201D009F0D1FB0A9CA01E4242E9
:101DAC0042414C26B85D8006C00F182529460BF021
:101DBC0051FCC007800EB95DDF220A401018069650
:101DCC00B855032C01D00020079049200990385CAD
:101DDC0062490F5C0420624CC6B2002E00D121E394
:101DEC00062141435431C8B20321394061184A7865
:101DFC002021079B06F0C0FE701EF9B28F08EBE79E
:101E0C0058480BF08CFC0120287000252570564C8E
:101E1C00019E072D00D1A9E1E8B209F04FFD0E217A
:101E2C00635E02B29A42014600DB1946E1811C2333
:101E3C00E35E9A4200DC1846A083042D06D309B257
:101E4C0000B24018C10F401840082080A41C6D1C23
:101E5C00DFE7079745480BF062FC062028703848EE
:101E6C00007806900AF0FEFD800700D504E30820F8
:101E7C003F490BF01CFC10200024042C00D100E383
:101E8C000490C1B2601C0390C2B200252846089190
:101E9C002B4608F0DBFD60001D490F183A370994FA
:101EAC00042D00D3C5E0B4420CD1032023490870A3
:101EBC000698A842079C00D00024401B4142414197
:101ECC004B0001E0002423467F202840032800D942
:101EDC00ABE0C0467844007940008744094D718BD3
:101EEC007FE80000AC050020B4C10000DAF300006C
:101EFC00387878780002820B08981E4908F042FA6C
:101F0C0079783A783A7080038906890C081854E07D
:101F1C009C03002054F300004EE60000AD050020A9
:101F2C00C5F1000071EB0000EDE90000B9E800001C
:101F3C0063F40000FCE50000E2F30000DD05002086
:101F4C00DB05002097F0000068ED0000E4F20000D3
:101F5C00E9F1000042F3000043E8000082ED0000CC
:101F6C009EF40000D1F100000CFAFF1FEAF3000010
:101F7C00CBEF00007AF1000038787878800200B25C
:101F8C0086120D207043810F401882104220089950
:101F9C0023460BF09CFBA00747D51E20C1431F22F4
:101FAC0030460AF0A7FD79783A783A708006800CB2
:101FBC0003229203090211404018000A787034E0A1
:101FCC0078783E780094072005900640334610330D
:101FDC0048200899FC4A0BF0C3FAA00725D5032129
:101FEC0030460AF09FFC39787A787A70059A10405E
:101FFC00F82217E078783878000200B2C6125A201E
:10200C0008993246234608F027FCA0070DD50E2070
:10201C00C1430F2230460AF06DFD39787A787A7018
:10202C00C00007220A40101838706D1C0A9E099CCB
:10203C0036E704980830039C1FE7E4480BF06FFB6D
:10204C001020E3490BF033FBACE3E2480BF067FBE9
:10205C000026E14DF1B2092900D393E0F0000329E9
:10206C0000D908386F22AA5C022908D10423134036
:10207C0005D0C1B23020022208F0B4FE1CE00629C3
:10208C0008D110210A4005D0C1B23020062208F038
:10209C00A9FE11E0C4B2701C42B22A2000232146D2
:1020AC0008F0DAFB30460F30C0B208F03FFA0246B7
:1020BC00442021460BF0E0FA761CCBE7C7480BF026
:1020CC002EFB02982870C648002606702020074375
:1020DC000797C44FF5B2082D68D2F000C4B218208F
:1020EC00412221460BF067FB30463130C2B21E2034
:1020FC0021460BF060FB284609F0E0FB02462A2043
:10210C0021460AF0F2FF032D04D828460AF02AFBD8
:10211C00401E02E0062D30460CD8C0B24000385E9E
:10212C0019214143080E081802125A2021460BF0BF
:10213C0051FB04E05A202146079A09F09BFF761CBC
:10214C00C8E7A9480BF0EBFA029828707342734168
:10215C004624A14D285D4006C00F0821A34A0BF070
:10216C0094FAC007400E295DBF22E5E02A24A04D59
:10217C00285DA0490870202E00D12DE2BF2E00D181
:10218C0036E23DE210209C490BF091FA0024E0B2BB
:10219C00062828D2E1003822561A08F0C7F9024660
:1021AC00F1B220200BF068FA641CF0E72820934968
:1021BC000BF07DFA9248008802B278203024214638
:1021CC000BF008FB8B48029901708E4800780028B0
:1021DC0000D1E7E2804D28577E21C9437F220AF0C7
:1021EC0089FC2855DEE254201821874A0BF0E8FAC6
:1021FC000026F3B2042B1CD2F0002030C4B25420C1
:10220C002146824A09F012FA7700B81DC0B208F0D4
:10221C008DF902466C2021460BF02EFAF81DC0B247
:10222C0008F084F90246782021460BF025FA761C3A
:10223C00DFE76F26A85D41060DD5082474492046BA
:10224C000BF035FA2B200BF0A4FA0246782021462D
:10225C000BF012FAA85D40B2002800D4A2E21024C0
:10226C006C4920460BF023FA2C200BF092FA024614
:10227C00782021460BF000FA94E2234642B260200B
:10228C00102108F0E9FAB01E424242414C25785D1B
:10229C004006C00F18210BF0DDF9C007400E795D28
:1022AC00BF220A4010187855202103223D46E7B280
:1022BC00022F33D22846002F01D0503000E0483096
:1022CC000478B242089208D160B20C4678210AF028
:1022DC0029FB21460446079B00E00023E6B20522B9
:1022EC0072430991CDB2662029460AF001FA002EFC
:1022FC0004D07820732229460BF05DFA364D28461F
:10230C00002F01D0503000E048300A9E0999089AFD
:10231C0004707C1C0831501CC2B2C8E7701F4242CA
:10232C0042414624285D0007C00F30210BF092F982
:10233C00C007000F295DF7220A401018285531E21A
:10234C004D20305C4023C2B2662020210BF0BFF937
:10235C000A98042800D0A4E04E24305705210AF036
:10236C00E1FA30554021079B0B439DE00A2E01D327
:10237C00092626700A96284803210170164D5F35F0
:10238C00082606240027042F00D10BE20020009021
:10239C000995F5B2FBB21E202946204A0BF0E0F855
:1023AC00E4B20A98001B414241411D48007800915B
:1023BC0004232946099D2A4607F074FC2D1D7F1C19
:1023CC000836641CDFE7C0469AE30000F2F3000015
:1023DC00F5EA0000FEF400009C0300203FF500002D
:1023EC00AF05002052FBFF1F4BF300000AF4000066
:1023FC000CFAFF1FD605002031EC000043F500005D
:10240C000E060020D205002002F400009AE600001F
:10241C0003F5000008F50000DD050020B9EE000012
:10242C00DB0500200798002806D0E34C099EA05736
:10243C0017210AF077FAA055002427460A9E042C8F
:10244C004DD0284678432430C0B2E3B22821E64A66
:10245C0009F0ECF85E20D849085CE040C00708D0D1
:10246C00284660432430C0B228211222002309F0F0
:10247C00CBFB7F1C641CE2E71820D6490BF017F944
:10248C0090E1042E00D0D3E04A24CB4D28570921EB
:10249C00C94328220AF02EFB28552021079B0B4309
:1024AC00CAE04E20305C4023D3490091C2B2662072
:1024BC0028210BF0B2F80A98401F434243414624AE
:1024CC00305D8007C00F3021CC4A0BF02DF8C007CF
:1024DC00800F315DFD220A401018305562E1042E48
:1024EC0000D0E0E0B1480078C007B34E09D05E24BC
:1024FC0030570F210AF016FA3055BE4800784006C6
:10250C0005D4232027215C2209230AF08DF94420CD
:10251C00305CE1E02F24A84D2857282178220AF0BE
:10252C00E9FA285540233B43C2B26620082109F042
:10253C007BFE4525A04C605D012E08D140B20921DF
:10254C00C9436E220AF0D6FA60553B4600E00023E0
:10255C0042B20A32702010210BF0B9F8B01E424280
:10256C0042414325605D0127384018219F4CA0470C
:10257C0023463840904C615DFE220A40101860558D
:10258C00F01E424242418807C00F20211F46984747
:10259C00C007800F615DFD220A4010186055301F86
:1025AC00424242414807C00F2821B847C007400F9C
:1025BC00615DFB220A4010186055701F4342434175
:1025CC00C80930218A4A0BF060F8C001615D7F2296
:1025DC000A4010186055E5E0401C75490855C1B219
:1025EC0003290DD117200AF0BBF9012009F02AFDAF
:1025FC006F4800210155182075490BF058F8CFE0B1
:10260C00C0B20028F7D0022800D185E0012800D004
:10261C00C6E000246B4E6C4F072C00D1ADE0AE83AE
:10262C00EF81E0B209F04AF92880AD1C641CF3E795
:10263C004A20614D285C2023019F6749009140B2DC
:10264C000A3082B24E20302421460AF0E6FF3235A1
:10265C00624E902C10D028786978090208183188BD
:10266C00081A400002B2E0B2382120230BF02FF8F8
:10267C00AD1CB61C1834ECE70A98052844D1602F21
:10268C00029C42D15648002101704B4832305349CC
:10269C0008220AF0ADFF0124204609F0D3FC1720D4
:1026AC000AF05EF931E04424434F385D052E13D116
:1026BC004B490978002977D040B203210AF032F94E
:1026CC00395DC2B202238A4207D03855069C395D67
:1026DC007F220A403A5500E000233130C2B212206A
:1026EC00302106F049FA0024E0B203285AD82E46CD
:1026FC00664324360AF036F80246F0B23021002345
:10270C0008F0A4F9641CEFE7002400203821354AB6
:10271C0023460AF080FD45E02648002101700D207B
:10272C00C643254D002E2BD021488719385F1C211C
:10273C00795E081A0BF073F833281CDBFA89788D54
:10274C00801A01B2890E411809B28909411AA819D7
:10275C002B23C154C273130A0374BB8BD21A13B24A
:10276C009B0ED3181BB29B09D21A4277120A82779E
:10277C00090A2B304170B61CD4E71020134908E02D
:10278C0009F02EFE2B2168542B35000A687010209E
:10279C000A490AF08CFF12201821094A0BF010F894
:1027AC0007F07EFE0BB0F0BD089B96E7AC05002051
:1027BC000CFAFF1FAF0500209C030020EFEE000079
:1027CC0057EF000068C50000983A00001BF10000AC
:1027DC0046EF00006AF4000030F2000032FBFF1FED
:1027EC00D205002047F500009AE6000073D60000E1
:1027FC000DF10000CC05002035EF0000DDF10000EC
:10280C00F0B59DB0029002200A4613900240189237
:10281C002020084008900120039111900140149150
:10282C004420CF49085C8006000ECE49081812904F
:10283C0000271BABCC4DCD4C059704971997072F50
:10284C0000D1CDE01A93FEB2304609F037F800B251
:10285C00314608F081F80446032F384604D8200985
:10286C00C349C8551298C05DC3B25A00C1488452BE
:10287C00200F201800B20009010601D5404200E0EB
:10288C0080B20006BC4988420CDC002802D0BB4850
:10289C00007800E0FF20012199400140C8B219994D
:1028AC0001431991032F31D8149800280DD1AE484B
:1028BC00007B800709D5AA4885183A20285C3A3550
:1028CC00697809020818810B43D105981590049971
:1028DC00169117960898002803D0A4488018F82160
:1028EC00445221B21D461846164606F00DFF04460A
:1028FC00A348007817990AF0FAFE324640001A9B5A
:10290C001880159805901698049001E01D461A9BA6
:10291C000898002803D095488018E0214452189854
:10292C00002811D0032F0FD8022D0DD00A34A0B2DD
:10293C00152806D38D488018E021144600224252F7
:10294C0022461BA8002181529B1C7F1C864D874C64
:10295C0075E716931792000200B2C0120AF019FF25
:10296C0000282BD087480078002827D02878697851
:10297C0009020D186807000F7949091832228A5C80
:10298C0032314978090289187F4A105A401A81B2AB
:10299C00C90B401800B24008A90009B2890A41438A
:1029AC0008B21F210AF0FFFB8100A80B02280BD0F4
:1029BC000128179A169B0AD10C1908E00598159056
:1029CC000499179A169B83E70C46179A169B022BB1
:1029DC0000D00499022B119800D00598159077E738
:1029EC00687CC00719D06648007802210AF07FFE87
:1029FC00044609F06BFD002800D0644260B27D30C3
:102A0C00E4215A4C615E01229202511A4143C817CB
:102A1C00800D0818800A1BA9888001201490800260
:102A2C0007900898002800D1D3E06C7D19980440D9
:102A3C0052480078FF2141400C4202D0182009F086
:102A4C008FFFF0204949079A0A52EE200A524B4850
:102A5C000470287E00282ED0E227444AD15F4943D7
:102A6C00E626925F5243551840B20AF0EAFD04463E
:102A7C00404385421FD91498C00301468AB2524381
:102A8C00AA42024600D800224A400004400C1146DB
:102A9C0001430028F2D13548C05F604395B2294606
:102AAC000AF081FB3149C853885F0F4660432946C1
:102ABC000AF079FBB8532C4DAB7D202B2B4C00D25C
:102ACC0087E00020189900290246014609D1E62129
:102ADC00264E715A1BACE2885218E221715A648856
:102AEC006118EC7D002C0CD0601EC4B26000142C5C
:102AFC0003D3264C0019283802E01C4C2018E03077
:102B0C000088DC0600D540421C0700D552425C0709
:102B1C0000D549425B09022B06D0032B1ED0042B97
:102B2C0036D1831A84184BE00BB25C0F1C19E408E5
:102B3C00091B5C0E1C19E409091B9C0D1B199B0A33
:102B4C00C91A09B293B2DB0BD3181BB25B089BB248
:102B5C0084B2E418631A6418114631E044182DE06D
:102B6C009C0300209BEF0000B4FFFF1F00F8FF1F29
:102B7C009A05002052FBFF1FFFFFFF01FB05002001
:102B8C00E4050020A805002032FBFF1FCAFAFF1F36
:102B9C0013B25C0F1C19E408121B5C0E1C19E4091F
:102BAC00121B9C0D1B199B0AD21A12B28BB2DB0B97
:102BBC00CB181BB25B089BB284B2E418A31AA418FE
:102BCC00F622F94EB352F422B4523446401AF22192
:102BDC00705240200399014003911A35F348F630A6
:102BEC000190149881040F910321129149040E91C4
:102BFC00C10410918005099019200A904005002706
:102C0C00EB4E1A970690102F00D1CBE300201190B9
:102C1C0015972878401EB84200D0D1E21398285658
:102C2C000AF0A2FD19901A98C6B2A719C020385CF8
:102C3C001890C0371298285600241499224604F094
:102C4C004FFC6978EA78002A37D0DA4A1278531E9A
:102C5C009A410B460D3BDBB2072B00D901241443E0
:102C6C0020422CD06B7A1F201A460240F74C247855
:102C7C00E240D2076C1C1694002ACB4C22D1189C33
:102C8C006242544118944A1ED2B20B2A41D85000C9
:102C9C00C54C2118E020085A17900120032A4FD860
:102CAC006A79AB791B029A18EB791B04D218099B31
:102CBC001A4245D0F8228A5AA9E00028D2D1681CC1
:102CCC001690B94C002038700A46083A022A0DD2E8
:102CDC006A79AB791B029A18EB791B04D2180E9BFC
:102CEC001A400F9B9A420DD1159F3EE22D29159F3C
:102CFC0000D03AE2B0002018DC49119A5143091275
:102D0C00016432E2092901D0024680E0A74AE2328E
:102D1C007DE0132AA44C16D80D39CAB25100D44800
:102D2C00405A032A199B08D8D24A511832228A5C7D
:102D3C003231497809028918401A4200012067E0B3
:102D4C00199B179A64E0232A0DD86879A97909028E
:102D5C000818E97909044018143A0999084215D061
:102D6C005000C54914E0242A07D15AB2D1B24909FE
:102D7C0018D0002A18D40E2217E02B2A0BD850009A
:102D8C00BE494018BE494056C20002E05000BD4941
:102D9C000A5A01203BE02C2A13D1642111980AF025
:102DAC0002FA14E0042428E011225418112C10D03B
:102DBC00152C1BD16F20AF49085CC00611D415240B
:102DCC0014E02E39C8B200210A4606F0B3FA0246C6
:102DDC00DFE76F21A74A525C0421114003D004465F
:102DEC0002E0252409E01124002906D1204607F031
:102DFC009DFB0028079A06D007E0204606F024FC2D
:102E0C00002800D1D3E1694AE2320120664C199BBB
:102E1C0038706879A97909020818E9790904471802
:102E2C00681D17901098074215D1287A002812D0E7
:102E3C0040B27C21C94317467D2208F0DDFF0AF021
:102E4C0000FC199BC219179F387879780902081869
:102E5C00B97809044718380400D1C9E08748407C88
:102E6C003146000701D5142000E064200B904B0084
:102E7C00880020180D90006C0646000A111A0846AE
:102E8C000A3080B215280C9306D3E45A002C04D1D6
:102E9C000024380604D100E00024189800282AD019
:102EAC0038460E9908400F998842199B13D12878FF
:102EBC004000744940180121C943405E0A998E02B2
:102ECC004643002B07D03046194616460AF06BF9DC
:102EDC003246199B0646300A101A010410D000B273
:102EEC000028189000D43F090C990F243C400B98F3
:102EFC0044430D9F08E018910D9F0C99199B03E01A
:102F0C00002018900D9F0C9927484018403721B28B
:102F1C0001290ADB5C490978002900D0641E2104D0
:102F2C005A4903D00480320A29E0214601801898BE
:102F3C00000424D0179C2078617809020818A17825
:102F4C00090444182004000E17D04F4800780028BC
:102F5C0017D00D971746002B069A104607D0D8119C
:102F6C0019184140C9B210460AF005FA199B189974
:102F7C0009B2002907DC0C2206E010B206020A4C4A
:102F8C002DE0094C1DE00822D4400F22224013D022
:102F9C000029054C00DC40420B9951430AF003F91F
:102FAC008619199B3A460BE000F8FF1F1EFBFFFF2A
:102FBC0000F9FF1FA80500203A4638B20602FC4C67
:102FCC000D9F10B23112189A12B2012A01DB814204
:102FDC0003DC002A02D5814200DA0602320A3E6086
:102FEC00179E3078717809020818B17809044718CF
:102FFC0004202956380200120ED408461B30C0B2E9
:10300C0037281CD37F20C043414010B20AF0ADF8E2
:10301C00199B0246159F5EE0084616460AF0A4FB73
:10302C00314632B2002A37D5012835DB6421081A23
:10303C00424310460AF0B7F80246159F4AE00629AB
:10304C003AD8880002A10858159F8746E40500204D
:10305C00E33000009D300000833100008B31000014
:10306C0095310000A1310000AD3100008F0200004D
:10307C0032FBFF1F9C030020EAFAFF1FB4FFFF1F67
:10308C006D020000CAFAFF1FB6050020FFFF00000A
:10309C0010B200281FDC7BE0012A159F09DB0028F9
:1030AC000A4617D591B26430484364210AF07BF884
:1030BC000FE0199B0A460EE0002900D55242159FDD
:1030CC0010B2002901D50622511AC91FC9B209F044
:1030DC000AFF0246199B179E30787178090208186E
:1030EC00B17809044018C1030DD416461699097815
:1030FC004A1E032A06D849001BAA8918891E09886A
:10310C008A1900E0324611B24B431099084216D08E
:10311C00297A002913D048B27C21C9437D221E464E
:10312C0008F06AFE0AF08DFA642141438B19179A54
:10313C001078517809020818917809044018400356
:10314C00800F02280CD001280CD1642118460AF0FB
:10315C002AF811994143C817800D0818801203E012
:10316C00119302E0119818181190964E1A98401C61
:10317C001A900A354DE510B2C0130240ABE710B2FD
:10318C00C01312184240A6E710B20028079AA2DC1E
:10319C000022A0E78948E23011B2CA1302409AE734
:1031AC0010B20028079A96DC844AE23293E7601C3E
:1031BC0006F04AFA0028079A00D126E6002224E6F7
:1031CC0000217F4816910170307800281DD06421B1
:1031DC001198199109F0E7FF0146764800784000F4
:1031EC003018C0884843B9007118089A002A01D1D8
:1031FC000A69801808610399002900D1D0E0B188D0
:10320C0009F0D1FF199A424300E0119A64211992F6
:10321C00104609F0C8FF7A006749179288520520BA
:10322C007843624C2118AD20400018910B18D978C6
:10323C0004220D929A56120252182B210901615C3C
:10324C004E42B24200DB16468A4200DC3146149CE8
:10325C001B570A267343079FFB185B18183B1CB2BD
:10326C00E237BC4200DB3B461FB2BA4200DC1346DD
:10327C001AB2189C20564643504CA0194618FA36E0
:10328C0030B2A04200DC4D4E30B211908242169CFE
:10329C0000DB1E46199900290BD0002901D4B81B5C
:1032AC0001E01198301A00B24843474909F07BFFFE
:1032BC00044630B2454EB0470419384627B2B047E1
:1032CC000646874200DC264637B211983F498847AC
:1032DC000446874200DB3446572080001899085C6E
:1032EC000028159F00D064429F2080002F4A105C5C
:1032FC001F2101401020401AC0B2874247D21798B4
:10330C0016183348315C8806020E40D08909491ED4
:10331C00C9B202293BD32E49771880160AF039FA24
:10332C0039788909032904D30028159F03D000217B
:10333C001DE0159F24E01C490D9A895E1B4A254B04
:10334C00D25C920604D41D4AF532914206DD10E09F
:10335C00CA138918514009B213290ADC05990906C8
:10336C0004D0049909B2019A914202DA14991A4ACA
:10337C00117019490978002900D114981049087066
:10338C00002804D0154830560AF05BF904460AF0C0
:10339C004CFA0298179944520AF045FA044C094E1B
:1033AC007F1C30E41DB0F0BD52FBFF1FB4FFFF1FAC
:1033BC0000F8FF1FE4050020CAFAFF1F1EFBFFFFE9
:1033CC00D005002000F9FF1FA08601000BD70000DC
:1033DC007D02000071030000FD0500207E0200004C
:1033EC00F0B589B0FD48002107910170FC480788B1
:1033FC0007F02AFEFB480178FB4A12780270501A3B
:10340C00FD4C2070FD4D2878002803D1FC4800218C
:10341C0004F002FD2078002800D1AEE2F9480178D2
:10342C00002901D0491E01700AF034F8F6498A8847
:10343C009042079C2DD14520F44A105C0A300206BC
:10344C002CD0F34A1278322A28D30A78521C0A70EC
:10345C00D2B2102A22D300220A704A88521C4A8007
:10346C00FF217831C0B2484380B291B2884215D264
:10347C001F200240012A11D1E6480178FD220A40A2
:10348C000270062009F062FA10202D2109F0E0F8F4
:10349C0004E04C808880E0480121017002F004FFB8
:1034AC0009F0B4F9DD480178002901D0491E0170FA
:1034BC00204604F029FE09F02BFAD948067804704E
:1034CC002878002800D0F6E10597D648877C042F91
:1034DC0003D0032F02D1042700E00827F02030404E
:1034EC007C21C943089120283DD00F203040811FFA
:1034FC00C8B2072837D8039106964421C34E715C95
:10350C008900C94A51184008085C5D21715CC907E3
:10351C0001D00321081AC5B2C4480078294609F025
:10352C00C3FD049029460AF0E2F8002F08D1C1131C
:10353C0042184A4011B2890F511889B289084F1CA0
:10354C00022D15D14621715CB94AB64B9A5C920991
:10355C004A40D2075B7C01261E4000D00227002A7D
:10356C0007D07F4205E04020304340285AD074E019
:10357C0026460399CA077AB2294600D152428218CC
:10358C0093B25C1EA3411446444024B2089D7C3582
:10359C00AC4201DC002400E00124002810D0002EF5
:1035AC000ED123400CD1002704983A4607F0EAFCD0
:1035BC00069809F00FF9162009F0D2F93E4631E0D1
:1035CC0017B238467C3080B2F8280FD804983A46A7
:1035DC0007F0D8FC78B2C01139184140C8B2810844
:1035EC003C31152009F0C6F900261BE0002F01DC48
:1035FC00089A00E07D22049807F0C4FC38467D3020
:10360C0080B20026FA280DD878B2002800D47F4268
:10361C0078B2800F381840B280083C30C1B2152007
:10362C0009F0A8F937460020C543824C2078411C8C
:10363C00C8B288422E4600D1064609F019F8002877
:10364C0000D10646F0B2C82800D035462570C828EF
:10365C0001D03E4601E04220C64306960C20764E31
:10366C00335E7648018809B2C91ACA0E891849090D
:10367C000A049CB20021002A0A4606D004800422C7
:10368C00825ED21AD30FD2185210848046235F4D1B
:10369C00EB5C20241C406A4B1B78234300D00A4669
:1036AC004280684F78797978091ACAB2D209891898
:1036BC00FE220A401018787148B2401038720699F0
:1036CC000843C0B207F0F0FC5F48007880005F4907
:1036DC0009585C20285CC01D5D4A914231D15D497E
:1036EC0009780029089B2DD1397A00290CD00022A9
:1036FC003A720622BA5649B25118994200DC194660
:10370C007D2900DB7D21B9719F218900454A525CDE
:10371C00510917D050B2002807D448008019C0882E
:10372C0001218A028018C90206E048003D49401870
:10373C00494940567D30FA2182B20720504309F0A6
:10374C001AFE089B45490978C0B2884202D009F09C
:10375C00FDF8089B4C202856414E002825D5307882
:10376C00002822D03F48007800282E4A00D17FE064
:10377C003D4C207840B2002801D4401C207002201F
:10378C0007F0C2FC7F250146294013D022788A42DB
:10379C002CD90021217006990906224A089B67D171
:1037AC0040B2002825DA632061E02E480021017028
:1037BC001C4A5DE0032007F0A7FC054016D02178D9
:1037CC00A942184A089B53D9002121700699090671
:1037DC004ED140B2002849DA642048E0CF050020E1
:1037EC009CFBFF1FBB050020A8FBFF1F0D4A089B7D
:1037FC003EE062203BE0C046B6050020AA05002052
:10380C00EAFAFF1FD405002092FBFF1F9C03002047
:10381C00B5050020AC050020B7050020A805002048
:10382C00CA050020B4FFFF1F9BEF0000E405002039
:10383C0071030000B405002052FBFF1F6CFBFF1F3F
:10384C00D605002085050020B105002050F9FF1F8A
:10385C00C53D000096050020B5020000A70500201C
:10386C00AF050020B0050020BC05002065200690A7
:10387C0001203070BF790020E04CC5B2062D18D85D
:10388C00680016185720C000305C00280FD005289F
:10389C00394604D007F08CF9089BD94A014648B246
:1038AC00984200DC18467D2800DB7D203055681CD2
:1038BC00E3E7059F069ED34C206800280DD0002519
:1038CC00294607F0B1FC09F041FFCF490A78012ADB
:1038DC001CD100281ED125601CE0CB480799017033
:1038EC00CA480478002C04D00170172009F038F86D
:1038FC002646C7480670C74814210170C648007890
:10390C008000C6490958F0B2884703E0002801D06E
:10391C000120087006F07EFD07F042FFC0480078D9
:10392C001F210140022925D1BE48067810360670A9
:10393C000E20BD49085E410F4118C9083022BB4D0D
:10394C00AA56921D4A430001101880B24624295DE4
:10395C00490601D5F02102E0B549098809B209F000
:10396C0022FCB4490A788018401C400808703106C3
:10397C0000D1E6E1FD4807990170AD48F0210180C6
:10398C00AD480178032901D100210170F848008865
:10399C00C01B82B2FB490B889A4200D90880FA49B5
:1039AC00C878002800D14EE1F8480188491C0191E3
:1039BC0001809F208000F04A105C1F210691084076
:1039CC001021081AC7B2182F00D81820C0B20790BF
:1039DC0078008018EE4942180798B84200D180E070
:1039EC0016460F2F00D9643673783478A509022D4A
:1039FC0006D8FB2B04D35800DF494018C721435C81
:103A0C0020460699084069D005950493089209F060
:103A1C00C0FE0546DC48C07880072A465BD46309A3
:103A2C00022B03D0012B14D0002B25D1D948C05D1B
:103A3C00411E884101216940014306D1049803923B
:103A4C00029309F0E0FE029B039A581EC0B20128B3
:103A5C0012D8D048C05D401E411E884128430BD16E
:103A6C00022B04980392029300D1401C0490C0B224
:103A7C0009F0C9FE039A029B059803280CD3C5488C
:103A8C00C05D411E884101214D40054323D1707812
:103A9C00144606F005FA1DE00120602C014600D307
:103AAC00002145400D4316D14B20042B01D096210B
:103ABC0000E081001446052B00D1C100019880B2B2
:103ACC0009F01CFC0029224605D10498C0B214460A
:103ADC0009F099FE2246AF48C255089A921C7F1CE9
:103AEC007AE70020A44FC4B20B2C00D9A6E0032324
:103AFC00184660433E184B20C00031180891A74966
:103B0C0071180791315C0F2708463840A44A1018E9
:103B1C00401E00780328069336D16000A14A125E3D
:103B2C00002A02D00AD4551E1CE0079A127855B20E
:103B3C00002D17DBEA430A25554313E092B2551CBE
:103B4C00AAB2AA420ED0032262438B4B9A18964B10
:103B5C00D256002A05D4521C52B20A2353435D1E7E
:103B6C0000E0D5438F4A121808090CD0082805929A
:103B7C0000D9401C09F00DFE002801D1864D7C3582
:103B8C0008980178059A15808848055D39400C29FC
:103B9C0013D10798007840B209F0FBFD002801D042
:103BAC0001250AE003206043734908187E494056FA
:103BBC0009F0EFFD002800D0002508980078384067
:103BCC000D2812D10798007840B209F0E2FD0028C8
:103BDC00694F0CD0A8070CD47348305609F0D9FDA6
:103BEC000028069D05D1022503E0634F01E0FD206E
:103BFC0005406E480555601C75E7C046B7020000CD
:103C0C00B4FFFF1F74F9FF1FBD050020B205002093
:103C1C00A9050020B3050020B105002050F9FF1FB5
:103C2C00CC050020BE05002042FBFF1F9C0300209A
:103C3C000E060020B50500200806002008F030FB19
:103C4C0000205149C8704878002878D0584801782D
:103C5C0011310C220A400F230C469C430C2A06946B
:103C6C00224600D00A460270702010400590134086
:103C7C000793302717409F2080003F49085C1F2185
:103C8C0001401020401AC0B2089000203E49C6B234
:103C9C00089886424BD2700037490D183C482C18B6
:103CAC00002F16D13A48285CC0210140402910D180
:103CBC008006801609F06DFD00280AD04F202D4992
:103CCC00085CC00701D1012001E03A48285C08F0EB
:103CDC0047FE21788809022827D18806801689009A
:103CEC0049B2592908DB192813D0C0B2182815D0AD
:103CFC0017281AD1059812E0002F16D109F049FDAA
:103D0C00002812D02B48295C8020484009F07BFD0C
:103D1C000BE00698C0B2202803D006E007980028D4
:103D2C0003D12448285C06F0BBF8701CAEE70020D9
:103D3C00487012480178002901D0491E017009B061
:103D4C00F0BDC0B2322800D214E62F21695C81424A
:103D5C0000D80FE611202E2108F07AFC285D000710
:103D6C0000D407E606483221018003E6B70500209F
:103D7C009CFBFF1F9C030020B4FFFF1FB00500201D
:103D8C009AFBFF1FAEFBFF1F20060020A2FBFF1FAC
:103D9C007D0200003505002083FF00005602000064
:103DAC005BF000000AFBFF1F570200006F050020AC
:083DBC00B90500207E020000A1
:103DC400F0B585B0BE4900240C704221BD4D6A5C3B
:103DD4000F271740BC4E3378002B46D01420BB4924
:103DE400085609F0DAFC0446B94E3078002803D1AD
:103DF400002C01D005F0D2F934702F202C5CF2484D
:103E040005780020049008F0E3FBA542029701D353
:103E1400842200E0862225201026314608F02EF95F
:103E2400262018275622394609F0C9FC5D200423B0
:103E34003146049D2A46019308F0DEFC33203946BE
:103E44002A462B4605F088FF07F04CFE00282ED0AA
:103E5400024626261021304608F08AFA25200F2132
:103E64000923324608F0E4FC93E00346803B0E2B22
:103E740000D915E15B00C0467B449B885B009F44EE
:103E84000F00D901DF01E601ED01F7010E000E007C
:103E94000E000E000E000E000E000E000F009DE737
:103EA40074700221317008F099FCCB48A9E1C5482F
:103EB400837C0020009026201021C84A09F054FB7E
:103EC40067E0384608F052FC0646C5480078394693
:103ED40009F011FCC1138A0F821812B29410002841
:103EE40001DC204600E00120220600D1441861B222
:103EF4001B20C043814200DC044660B21C2800DB66
:103F04001C24F9488019401E0678681EC0B2012896
:103F14001DD804213622304606F060FD012F03D05F
:103F2400A848407CC0070FD1701EC0B21E2704955C
:103F3400032539462A4606F051FD701CC0B23946A5
:103F44002A46049D06F04AFD1F20011B18E0304656
:103F54001B38C0B23B2103913622E44B9847701EB4
:103F6400C7B23A210495032538462A46DF4B9847C1
:103F74003C2138462A46049DF64B98470399A619D6
:103F8400F01EC0B2C91EC9B20722134609F06DF86B
:103F94006D1CEFB2042F94D30298C4B2012C36D80E
:103FA4000025E54ED24F082D00D1F7E0308800B24D
:103FB400012C05D0002C27D1042D06D3302105E097
:103FC40082B2042D17D35E2016E02821C20E821877
:103FD4005209821A430EC018C009101802B20320F5
:103FE400284036234343123358081830C0B22023E4
:103FF40009F071FB08E0222003232B4005215943DB
:10400400263112B206F0DAFAB61C6D1CCBE7022C8C
:1040140013D106F049FABA4800780624444300282C
:10402400B34F00D0E01CC1B20A2008F0C9F9A01DAA
:10403400C1B2642008F0C4F9B0E06620202601244F
:1040440031462246234608F0D7FB482080233146D8
:10405400224605F081FE0824AD4AAE4D2046314685
:10406400A8472826AC4A20463146A8473027AB4A01
:10407400049420463946A8474224A94A204631469A
:10408400A847A84A20463946A847A74F387840078A
:1040940025D42A202021A64A002309F0C0F82AE0CA
:1040A4000346223B032B00D99CE0702002405B00B6
:1040B4007B449B885B009F440D00F200E500F60002
:1040C400AF0500209C03002096050020B4FFFF1FCD
:1040D400F9050020002F00D1F3E07F1EF2E09348A1
:1040E4000199405E0A2109F062F802B236202021CB
:1040F400002308F09DF83878000706D42A202821E8
:104104008B4A002309F08BF80BE006208749085EF0
:104114000A2109F04CF802B236202821002308F0C5
:1041240087F83878800703D480496420488001E008
:104134007E48408802B23620302400262146334689
:1041440009F0C9FA7B48007825222146334604F059
:1041540017FD3878800606D466202821744A002387
:1041640009F05DF807E00A2070490A5E72202821F0
:10417400002309F0B0FA3878C00606D4662030214E
:104184006B4A002309F04BF807E068480499425E43
:1041940072203021002309F09EFA554F3878002808
:1041A40046D066481F210E2204F010FB6449002209
:1041B4008A7001283CD1B878042839D803A3185C44
:1041C40040008744B4FFFF1FB505002006202730B8
:1041D40032004C482AE0C046A905002024EF000024
:1041E400E4050020BF2800D0F8E50124464E20460F
:1041F400B0470320B0470220B04741480021017076
:1042040042480470EAE5514802703B4801210170BC
:104214004F480BE0012088704A48007880004A49E2
:104224004018406802E0354800E0324807F0CEFD0F
:1042340005B0F0BD08F0E8FB09F0E4FA17204FE000
:104244002C4807F0C3FD822008F0C8FAF0E729489B
:1042540007F0BCFD832008F0C1FAE9E726480121F4
:104264000170284807F0B2FD842008F0B7FAB5E5DC
:10427400214801210170214807F0A8FD852008F09C
:10428400ADFAABE5022F00D0A8E51D480178491C22
:104294004AB2022A00DC0C46047002279EE5022F73
:1042A40017D87F1C16E0022F00D097E51448017838
:1042B400491E4AB20227002A3A4600D40A4602702E
:1042C4008CE503273A436A54A12007F0BFFE14206B
:1042D40006E000273A436A54A12007F0B7FE1320F2
:1042E40008F042FB7AE5C04637F50000D7D7000056
:1042F4009605002009940000D60500207D1A0000D0
:10430400FA0500202D5C0000E1C70000F90500203B
:10431400B0F40000CDD70000B6F40000BCF40000F7
:10432400C2F40000C8F40000C405002060FBFF1FB5
:104334003BF50000A2050020EAFAFF1F7FE8000019
:104344009E050020B105002050F9FF1FCE05002076
:0843540011040000D7D700009E
:10435C00F0B58BB00546F64809F0E1F9F54C20783C
:10436C00002821D00820F44A11560020107201298F
:10437C0001DB012100E0C911002901DC632200E00E
:10438C006222002900D01546EC490978002901D198
:10439C00632D06D0622D05D1E94A127852B29142B2
:1043AC0000D10546E7480570E7480078002805D19C
:1043BC00E3480278E148294600F0C8FEE14E307827
:1043CC00DE4909780691012103912E2806D0602838
:1043DC0004D0BF2815D10020207012E021780029CC
:1043EC0006D0DA48002101702170D948017008E02C
:1043FC00D5490978002904D108F0ECF90020039084
:10440C0030700295069840B207F09AFF0346CE48EA
:10441C000078002801D00020307020780028089304
:10442C003CD03678FE203040622837D13046623896
:10443C0047420A904741F64805782F43284608F032
:10444C0051FB0446002F10D020206840622171409F
:10445C00014348424841202D089B1FD800281DD1FC
:10446C000027622E0BD0F8430AE02078022801D3F3
:10447C00401E2070022007F0E5FD089B0EE0012095
:10448C002D18E8B208F02EFB21784A1ED2B20F2A62
:10449C00089B03D80278102A00D897E10120002647
:1044AC003746C1B2102900D908E10A910790F0B241
:1044BC00099008F017FB089B0446FDB29D420BD3F4
:1044CC00E81A062808DCC0000830C1B2012000231D
:1044DC000A9A09F004F9089B09981F280A9A00D92E
:1044EC00BEE02078904200D0BAE0F8B2984200D2F8
:1044FC00ACE0C11A062914DCCD000699C9B2002221
:10450C00814229D1C3480078002825D10798C94990
:10451C000870C64806700398002815D0C14800786A
:10452C0018E0072900D091E0BA480078002800D1A3
:10453C008CE0BF480078F1B2884200D086E0B649E2
:10454C000878401C087081E00120B64908700022F0
:10455C0002924A704242424105920835F1B20998E2
:10456C000491884209D0E07900210091E9B240071A
:10457C00830F1320B64A08F0F3FFEDB2302000236E
:10458C002946224606F032FF022022562D202946CB
:10459C00059B09F022F8A070E078002805D042B203
:1045AC0048200023294606F057F9207900281DD011
:1045BC006179A279120251180722A25612048918A5
:1045CC000BD401461B31C9B2362909D842B260203E
:1045DC000023294607F088FB08E06020642201E0F4
:1045EC00602045220023294604F0C6FA6079A1799F
:1045FC0009020818E17909044018FF210902014059
:10460C0001D0532200E02022002901D02A2100E011
:10461C004421000600D00A467920294609F0CBF83F
:10462C007C48007800280FD0814800780499884293
:10463C000AD1182066220023294607F0E5FA7648AD
:10464C0007707A4806700697089B0A9A7F1CF0B28E
:10465C001E2825D8761CA07A0A3490421DD144E736
:10466C000698C0B2A84217D17048067007987149D5
:10467C000870F81AC000C01DC1B200241922092309
:10468C00204608F0D1F8089B0398002804D107F0C5
:10469C0089FF089B002805D07F1C0798401C00E769
:1046AC002026FAE761480078214606F0BBFA594803
:1046BC000470614807F086FB089B0697F8B2984295
:1046CC001CD3C01A062819DC38205C4908F0EFFF0F
:1046DC000698C0B25149097849B288420ED13821A6
:1046EC007E220020034607F08FFA0298C0B26028A1
:1046FC0001D02E2802D1524807F064FB49480078BB
:10470C0000285FD00298464908704E483F210B2282
:10471C0004F058F801284ED142488078052832D848
:10472C0078440079400087442415262E3237C04641
:10473C0098F40000ED05002085050020EE05002012
:10474C00EB050020A905002096050020D2050020CD
:10475C00CE05002007F026FF00280AD1334908783F
:10476C00401C0870C0B20024214606F05BFA2948B0
:10477C00047031481AE02D490878401C0870C0B20A
:10478C00012106F04FFA01202249087010E0274859
:10479C0000782D49087002E02B48FF210170204C55
:1047AC00207808F017F800202070284807F00AFB42
:1047BC0000201C4908701C48002101701B4800781F
:1047CC001B490870154807700BB0F0BD8A420AD11E
:1047DC000A210A0619D00278237803702270641C0F
:1047EC00401C491EF5E70A9B5A1E18469041102999
:1047FC0002D3002800D13DE6102900D201275A42ED
:10480C005A413A40081A801833E60948057031E6D7
:10481C00E9050020ED050020EE050020EB05002049
:10482C00A905002096050020D2050020E9050020EE
:10483C00F0050020EF0500206148000088F0000022
:10484C003D990000C0EB0000EC05002015AD000008
:04485C00F4F4000070
:10486000F0B58FB004463148007808F041F90546AC
:104870002F4F0E2238460894214600F06DFC2D483B
:1048800008F053FF2A78801DC0B200242146234639
:1048900008F02BFF387847B2384607F057FD0690EE
:1048A0002548027808202549029008F07EFDE04363
:1048B0000390681D0490F8B207900C95E0B20728A9
:1048C00000D30FE206982018C0B2079981420D94D8
:1048D00001D0002701E01A490F780E2800D9C0E165
:1048E0000D99CB001E460836810001A251588F4613
:1048F00045490000614900007349000085490000F6
:104900009D490000B7490000D74900004F4A000008
:10491000AB4A0000C54A0000674B0000914B000005
:10492000B14B0000CF4B0000EF4B0000E905002029
:10493000EA050020BCF20000D105002040E40000A0
:10494000D80500206C78F1B2FBB254202A4606F05C
:1049500053FD252C00D05DE1687A440925345CE1E3
:1049600002202A56F1B2FBB2602008F03CFEA8708B
:1049700077E102982A56F1B2FBB2602008F033FECC
:1049800028726EE1049CA078F1B2FAB20007C00F61
:1049900008F066FEC007000BF721F3E0049CA07846
:1049A0004006C00F6978042900D944E1F1B2FAB297
:1049B00008F05FFE44E1049CA17801200840F1B2B8
:1049C000FAB208F056FE7F214904A27812040A4088
:1049D000C007C00BDAE0049A107851780902081871
:1049E000917809044018C20D000200120399884210
:1049F00005DD28791B30C0B2352800D90222022AF1
:104A0000C04800D0C0480E92002AC04A00D00246DA
:104A1000F1B2FCB20620234608F003FC002C0E9CE9
:104A2000204603D00221204607F082FF844200D1B5
:104A300017E1811E4A424A41D1012971C005049AF9
:104A400091784906490A0818000C907009E1049A07
:104A500010785178090208180221515609044018AB
:104A60002C790399884200DCFEE020461B30C0B25E
:104A7000372800D205E140203843C3B27F20C0432D
:104A8000444060B2F1B206466620324608F025FE88
:104A9000380606D06320C1436422304608F030F85F
:104AA0000446802060402871DBE0FBB2581E1946A6
:104AB000814103202A560091F1B24E2005F008FEF4
:104AC000E870CEE00B96380602D0042088490870C2
:104AD000F9B2481E81410A9107200990034300263C
:104AE00001210593F7B2042F00D9BAE0687A0E913C
:104AF00008401F25284043424341099C74432046F7
:104B00003F30C0B20B99C9B232463032D2B204F053
:104B100039F878480078C01B411E884101210A9A63
:104B20005140014319D10598C1B23E34E0B2082288
:104B3000092307F07FFE08982E2802D00898202825
:104B40000BD10E9805400C99487A684048720220B3
:104B500007F07EFA002068490870761C0E9800065F
:104B6000C10D0C9DBEE70799081A43424341049CBE
:104B7000A178F0B249078A0F5C4905F009FC80076B
:104B8000400BF9210904A27812040A40801866E05B
:104B90003046049E32780F242240C0B2F9B206F0AB
:104BA000FDFF20403178F0220A401018307058E0A4
:104BB000049C2278F0B2F9B21206120F06F0EEFF52
:104BC000000121780F220A401018207049E0049C4F
:104BD0006278F0B2F9B21206120F06F0DFFF00039E
:104BE00061780907090D4018000A607039E0304605
:104BF000049E72780F242240C0B2F9B206F0CEFFB4
:104C00002103727812020A400007000D8018000A82
:104C1000707026E0252C00D9A41D380621D060B282
:104C20000121372207F06CFFC1B2252958D32C2966
:104C30004ED3801F54E0F1B2FBB2354A08F07AFC43
:104C40002178627812025118A27812048918264A33
:104C5000114021700A0A6270C007400A0843000C24
:104C6000A0700D9C641C29E66420F9B200900191AB
:104C7000F1B262B26320C343482005F0B1FD287150
:104C8000EFE7F1B262B2FCB20C20234607F032F833
:104C9000002CE6D0042028560F21C943162207F025
:104CA0002FFF287108996029DBD1072806DBC01F78
:104CB00012490870124807F08BF8287941B2002990
:104CC000CFD5C0430D4908700D4807F081F8C8E7FB
:104CD000697A1F220A4040018018603068722520DE
:104CE0006870BEE70FB0F0BDFFFFBF0030ED000001
:104CF000DD050020DB050020D2050020DF050020B7
:104D0000398500008CF4000092F4000086F4000065
:044D100079F0000036
:104D1400F0B58BB00646F24808F005FDF14C20785A
:104D2400421C4E200021079108F058FD21780922E9
:104D3400104608914843EC490C18EC4D605D40075F
:104D440000D00A22EA4F3846314600F003FA6519CA
:104D5400E8482418387847B2052F0A9709940EDCDE
:104D64000820F14908F0A7FCE448067807F042FE61
:104D74002078002F079600D18AE000238EE0059664
:104D84000826DD49304608F096FCB81F43424341EB
:104D9400DA480078069028784006820FD8493C46C5
:104DA400D84F04963046B8478007400E29789F2292
:104DB4000A4010182870E01F43424341CA091020DA
:104DC400D149B847C0012E787F2131400818287096
:104DD4002046083843424341072426401820CB4943
:104DE4003246B84720402978F8220A401118297021
:104DF400B04209D00921089A5143BB4A5118E20133
:104E0400079B8B5489184B70002867D02020C04919
:104E140008F051FC2878204028260A2502280A9FF9
:104E240000D1FDE001285CD1092008994843AE492E
:104E34000818E101425C43185878000280187D216B
:104E44008C00092F08930CD100B222460B320021AA
:104E5400022302F021FF089B1870010A5970069979
:104E64000791E11D02B28A4200DCEFE06C202021B0
:104E74000391AA4A079C234608F0D1F908980078C0
:104E84003530C2B278200399234603F079FE28E036
:104E940040B22E2107F04AFD20703346C2B2602092
:104EA400082105F0D7FD2078002821D0401EC0B28B
:104EB40005F0F6FE064608209C4908F0FCFB207825
:104EC400252810D30221002200920191253842B2F4
:104ED40048200821334603F0B9FD09E020260925BE
:104EE4000A9F099CC5E048200821324608F076FC58
:104EF4000920089948437C490E188D49705C012F9C
:104F040007D1741840B2062107F010FD20700799EC
:104F140000E00021C3B2042B04D800914E201021DC
:104F2400854A05E00091401FC3B24E201021814AFA
:104F340008F01AFB022F15D1804864210170804CBF
:104F4400305D371901217956090208187D210A02BA
:104F54007C49022302F0A0FE3055000A78700A9FB3
:104F6400079B00E0002309980078252810D3744992
:104F7400725C711801240957822400930194090278
:104F84008B18253842B27820182103F05FFD0AE01F
:104F94006B48315C30180122805600024218782098
:104FA400182108F098FB6849705C0024032F0CD189
:104FB40077186649097840B24AB2514249B207F0BB
:104FC4009DFD38700A9F079B00E0234642B2602093
:104FD400202105F045FCDF208100705C042F07D1FF
:104FE400741840B2212107F0A1FC2070079B00E057
:104FF4002346C2B26020282106F0F8FF781F4342FE
:1050040043412878C006820F3020514905F0BEF98B
:105014008007C00E2978E7220A401018287046E05D
:1050240009200899484330490818E101425C4418B2
:10503400607800028018092F12D140B20F2107F0C6
:1050440075FC00216170207006990AE0A24230DDEF
:105054000C30C2B26C202021079B07F067F840E7B0
:105064000021099C0091C3B25A202021294A08F04A
:105074007BFA2B49304608F01EFBBD4211D105983E
:1050840080280CD1002509222046294608F00AFB75
:10509400214805700A2F02D1154804990170069B16
:1050A40000E0002348201F4A314608F0B8F80BB04E
:1050B400F0BD78202021079C234608F00CFB002C2F
:1050C40000D10EE70598802806D108990878497818
:1050D4000902081807F014F80F480021017000E7CE
:1050E400F5F10000E6050020B4FFFF1F7D0300007A
:1050F40000060020790300000CEC0000D805002015
:1051040052EE000091A3000001F2000068EE0000DE
:105114003BF200009AE50000D205002059F500009A
:1051240071F40000EEF2000048EB00000DF5000001
:105134007A030000DBEF0000BDE40000B3050020AB
:105144007E0300000083FFFF7B030000AD05002009
:0451540096EC0000D5
:10515800F0B585B00392049101900825D548425FC7
:105168000621D54F795E891A8B0EC9188911D34B40
:1051780019700A23C35E785FC01A840E00193C4672
:105188008011CF4E3070C0B2C9B2CE4F3E78029671
:10519800002901D092B2E280002801D09AB222817F
:1051A800C94A1378002B08D146233E462746C74CE8
:1051B800E35C3C4637469B0606D50020C04908708C
:1051C800BE49087010700146084302D16088002863
:1051D80001D007F08FF9BE4E33780398FF28049A60
:1051E80075D0BC480078012811D0002815D1BB49DA
:1051F8000878012802D10020087002930093B84B68
:105208005A5700201872012A09DB012208E02E2AC9
:105218001BD0B1480078002817D027463BE0D211B0
:10522800029D012A16DB691CCAB2521A531E9A4102
:10523800009B9D4201D2002A25D0019A1178039B38
:1052480099420CD2491C11701BE027460020A14945
:10525800087020E052B2002A04D4294612E0002146
:1052680011700FE0002D009B01D0691E0BE0019A20
:105278001378002B039A00D05A1E019B1A70012242
:105288000A700146009B049827462E2802D1012067
:10529800904A1070029193480078401CC4B21D4691
:1052A800844201D00020C44307F0E4F9002800D16B
:1052B8000446E0B23D282B46049A04D301208549D0
:1052C800087085490870874804703C467D4F8648B9
:1052D8000370814800780028029D19D01046603874
:1052E800052834D910464238032852D9212A00D13A
:1052F80081E02E2A78493BD0812A75D08E2A77D032
:10530800BF2A00D0C2E00025019805700D70BDE0ED
:105318006B480078002853D01F4601990978091A6C
:105328004AB20020002A00DC0146CAB2039B9A4216
:1053380000D30399019A117061490870E8B23B469D
:10534800B84200D31D4601985E4F049A39E08000A8
:1053580001A1085860498746795300009554000018
:10536800B5530000175400003D5400005D54000080
:105378000398FF2800D189E0087841424141564A04
:1053880011705549002800D080E052480121017071
:105398007BE0C04678440079400087440133455893
:1053A80001980078039988424B496FD00878002803
:1053B8006CD101980078039988425FD300205EE0A1
:1053C80001980078002889D03C480078002800D14E
:1053D80084E72D1A68B2002800DC0025E8B298425C
:1053E80000D27BE71D4679E70020087001203EE0E7
:1053F8008E2007F0F1F938490878002836D00020C7
:10540800087043E001980078002833493ED00878B6
:1054180000283BD101980078002801D0401E039055
:105428000198039901702CE0E8B298422A4901D109
:105438001D462BE0002B29D00878002826D12B49BF
:1054480000200870E9B2994214D305461DE02806E9
:10545800214911D0002B19D00878002816D12348EB
:105468000021017028060FD06B1E0DE0002006F009
:105478002FFE0AE06D1C08E0002507E0401C01999A
:105488000870E8B2984200D31D4613493D700020C9
:1054980030700878002801D0022100E00121144A68
:1054A800117061880843411E88411249087005B08F
:1054B800F0BDC04652FBFF1F6CFBFF1FD505002047
:1054C800D7050020DB050020D60500209C0300201E
:1054D800DD050020CE050020D2050020DE050020D5
:1054E80085050020DC050020DA050020A90500203C
:0854F800D8050020D3050020B7
:10550000F0B581B00446D54F3879002801D0D54890
:1055100000E0D34808F009F9612C09D0BF2C17D15D
:1055200007F038FA002078707872D149087025E0C9
:105530005A2008F086F92D20CB49085C01F0CEFEF8
:10554000CA480021017009207872612007F048F9EB
:10555000787A092800D97EE1C5490D784000C04617
:1055600078448088400087440900160021005C00D0
:105570008800BA00C600CA00F300F7001B242046CA
:1055800008F05FF9204608F05CF9012078720020ED
:10559000F87038705FE1F878042800D9E7E03E2021
:1055A00007F0F1FFF878401CF87054E10721284615
:1055B00007F0AAFE681A7870B64808F0E2F8B64C10
:1055C00006F0C0FFC0B2FF2800D144E12188491C89
:1055D00021800D2802D0032801D132E10020B978C2
:1055E0000C224A43BB183A789B189872002805D0C1
:1055F000501CC1B20A2912D30A2010E07878FA7838
:10560000824205D3481CB870C0B2082800D315E107
:105610004E2008F016F9F878401CF8700020387019
:10562000CEE77878BE783018401EC2B29048214646
:10563000FFF792FD7878281AC1B2062900D9A1E0B7
:10564000072E354600D3072540B2009000200826DB
:10565000C7B2AF4200D398E00098381A43424341A2
:1056600010330C20014679437C4A52180A32F1B2B9
:1056700007F0D7FD781C0836EAE7844808F081F87F
:105680007879002800D18BE0012800D0E1E006F015
:1056900059FF411C00D1DCE039787A189072481C1F
:1056A0003870C0B20F28F2D3F8887949091A4C1C17
:1056B000A1B20C2900D30C24A2B2704908183946B3
:1056C0000D3107F09BFFF8882018F88080B2C008E1
:1056D0007D2800D2B8E0052078726520B5E06A48E0
:1056E00008F04FF8387A06F09BFC002800D1B2E0B1
:1056F00006207872AFE0634808F043F8ABE05E48FC
:1057000008F03FF87879032866D8C04678440079D5
:10571000400087440169717B0020F880622007F017
:1057200032FF002800D194E0387A06F09FFB0D206C
:1057300007F0BCF851480A2107F03EFF0B20504CFF
:10574000A047E820A0470320A0470120787180E00F
:10575000484808F016F87EE07A2007F014FF002889
:1057600079D008F06DF8002006F0B6FC73E03879C7
:10577000002807D00720787200207871422008F0B6
:1057800060F868E007F09EF865E0602C334C62D169
:10579000522008F056F804206072002060715AE030
:1057A0000026FE80722007F0EEFE002851D00D2466
:1057B000204607F07BF87878281A0C2141437818A6
:1057C00003218175E82141750A30214607F0F4FE76
:1057D000012078713E703CE0062007F0D4FE0028DE
:1057E00037D00820787234E0632007F0CCFE002820
:1057F0002FD00020F8800EE0F888C0087D280DD357
:10580000032008F01EF80420787122E0642007F0DD
:10581000BAFE00281DD0022078711AE00C24204620
:1058200007F044F8F88815490818214607F0C4FE27
:1058300003207871F8880C30F8800AE0582008F0CE
:1058400000F80320787206E06E2007F0FAFF0020CF
:10585000387006F0A3FD01B0F0BDC0460CFAFF1F82
:10586000CAF300004EF400009C030020D205002083
:10587000F5050020B9F100005CF40000B4FFFF1F43
:1058800043D8000027F3000055F40000C6F20000E2
:0C589000E7030000D2F30000AAFBFF1F9A
:10589C00F0B589B01F225002C44C616801436160AD
:1058AC000126F006A3680343A360C148C368102116
:1058BC0007910B43C360BF498C69BF4B1C408C6183
:1058CC004C681C404C604C691C404C61BB4DAC6836
:1058DC001C40AC60BA498C6D1C408C654C6F1C40F4
:1058EC004C672C681C402C6016238360C3683343C0
:1058FC000E27BB43C3600023049303624723436218
:10590C000260426A802308931A43402306939A4309
:10591C00426202681206FCD50F2002900004A94CCA
:10592C00626D824362653302A748036443648364F7
:10593C00C364626D3A43626543608360C360202236
:10594C00D2436261A1490B61626D32436265F743D8
:10595C000397226C3A4022640360B0079C4A576953
:10596C0007435761176887431760954DAB676069AC
:10597C00079F38436061206838432060CB60F7078D
:10598C000597506938435061106838431060EB67D5
:10599C0070036769074367612768074327600B63D8
:1059AC008C48476D08990F434765076C0F43076494
:1059BC00804AD361029A9704009685494E693E430A
:1059CC004E610E68BE430E60AB64EB642B656B6579
:1059DC00150246692E4346610668AE430660774A57
:1059EC00136253629362D3621746456D03990D405F
:1059FC00456570490B6045690226B54345615360A6
:105A0C00456D079EB54345650B61009A15036669A4
:105A1C002E4366612668AE4326606C49CB621646FF
:105A2C009205029261490C6814430C6074023D4665
:105A3C00BC617C61684F12210391B97019247C7090
:105A4C003E703446654E083E3168654A11403160FF
:105A5C00A102644E31603246B978069E3143B9706A
:105A6C004169079E314341610168314301602B61FB
:105A7C004169089E31434161016831430160EB612A
:105A8C0041690826314341610168B1430160EB6013
:105A9C004F4948690326304348610868B0430860A1
:105AAC004748036043604348C3604C4DE8684E4927
:105ABC00084005994018E8601160E7053B49886883
